:1000000006C100000C941C380C9447380C947238CC
:100010000C949D380C94C8380C94F3380C941E3909
:100020000C94493925C1000023C1000021C1000002
:100030001FC100001DC100001BC1000019C100004C
:1000400017C1000015C1000013C1000011C100005C
:100050000FC100000DC100000BC100000C947439E9
:1000600007C100000C94AA3D0C94E03D01C10000C2
:10007000FFC00000FDC00000FBC00000F9C0000090
:10008000F7C00000F5C00000F3C00000F1C00000A0
:100090000C94363E0C946C3EEBC00000E9C00000AE
:1000A000E7C00000E5C00000E3C00000E1C00000C0
:1000B000DFC00000DDC00000DBC00000D9C00000D0
:1000C000D7C00000D5C000000C949D320C94C23EF5
:1000D0000C94F83ECDC000000C944E3F0C94843F2D
:1000E000C7C0000000000A0B02090C0D0E08070330
:1000F00004010000000000000000000000000000FB
:1001000000000000000000000000000000000000EF
:1001100012111000000000000000000000000000AC
:100120000000000000000000000001021020200874
:100130000810204010204080020102010804020142
:1001400001020408102040808040201008040201B1
:10015000800402018040201008040201080402010A
:100160000102040810204080010204081020408091
:1001700005050505070508080808020202020A0A23
:100180000808040404040101010101010101030341
:10019000030303030303040707070C0C0C0C0C0CEC
:1001A0000C0C0202020206060606060606060B0BE9
:1001B0000B0B0B0B0B0B000020002300260029006B
:1001C0002C002F003200000100000301060109018C
:1001D00000002200250028002B002E0031003400F2
:1001E00002010000050108010B01000021002400AC
:1001F00027002A002D003000330001010000040117
:1002000007010A013302093E953E213FAD3F11240B
:100210001FBECFEFD1E2DEBFCDBF00E00CBF13E0C9
:10022000A0E0B2E0E8EDF0E800E00BBF02C007900C
:100230000D92AE30B107D9F72AE0AEE0B3E001C0CD
:100240001D92A336B207E1F711E0C7E0D1E000E06C
:1002500006C021970109802FFE010E943940C2305B
:10026000D10780E00807A9F70E94F9330C946A408F
:10027000C7CECF92DF92EF92FF920F931F93E82F9A
:10028000F92F05C0015011092109310961F190814F
:1002900096239417B9F305C00150110921093109BA
:1002A00011F1908196239413F7CFC12CD12CE12C1E
:1002B000F12C0AC08FEFC81AD80AE80AF80A0C1500
:1002C0001D052E053F0579F080818623841791F363
:1002D0006C2D7D2D8E2D9F2D1F910F91FF90EF90F6
:1002E000DF90CF90089560E070E080E090E01F9193
:1002F0000F91FF90EF90DF90CF900895CF93DF9311
:10030000882349F0EB0181500E94923A99838883B7
:10031000DF91CF910895FB0111821082F9CF0F93E5
:100320001F938B019C0183E03695279517950795C0
:100330008A95D1F7095E1C4F462F477021E030E0C7
:10034000F90102C0EE0FFF1F4A95E2F7AF01F80175
:1003500020812423CB010196211102C090E080E08E
:100360001F910F9108950F931F938B019C0183E0C0
:1003700036952795179507958A95D1F7677081E08F
:1003800090E001C0880F6A95EAF7F801E95EFC4F3A
:100390002081452B31F48095822380831F910F911A
:1003A0000895822BFACFCF92DF92EF92FF92CF93F4
:1003B000DF936B017C0160E086E3C816D104E104A1
:1003C000F10490F486E38C0D0E94EF3BE601219648
:1003D000AE01C701B601C7DFCE01DF91CF91FF901B
:1003E000EF90DF90CF9008958C2DEECF882341F0D1
:1003F0008150682F70E090E080E050E040E0B3CFA3
:100400000895462F682F80E293E03AC040E060E014
:1004100080E293E0AAC340E061E080E293E0A5C3FC
:1004200060E080E293E0FCC3EF920F931F93890199
:100430009A01E12CAB01BC0180E293E041D01F9115
:100440000F91EF900895EF920F931F9389019A01F6
:10045000EE24E394AB01BC0180E293E031D01F9124
:100460000F91EF90089580E293E000C040E85EE3D2
:1004700060E070E0FC01458756876787708B0895C0
:10048000CF93DF93EC01862F6D834E83262F30E0D0
:10049000F901E65DFE4FE491EF83F901E059FE4F6B
:1004A000E491E88762E00E94EF3B80E398EFAFEFD2
:1004B000BFEF89879A87AB87BC87DF91CF9108957B
:1004C0004F925F926F927F928F929F92AF92BF9264
:1004D000CF92DF92EF92FF920F931F93CF93DF9310
:1004E00000D000D000D0CDB7DEB74A015B012801B3
:1004F0003901E986E11010C026E636E646EE5FE3F4
:10050000CB01B4010E94F53620E030E040E052E437
:100510000E948A344B015C0120E030E048E852E45C
:10052000C501B4010E9489342AE939E949E95FE348
:100530000E94F5366B017C0120E030E044E752E494
:10054000C501B4010E948A349B01AC01C701B60108
:100550000E948A346B017C0122E133E840EC5DE3C8
:10056000C301B2010E94F5369B01AC01C701B6017F
:100570000E948A3420E030E040E05FE30E94F536DC
:100580006B017C0120E030E04EE952E40E94F1363C
:1005900018160CF023C1A5019401C501B4010E94F5
:1005A000F5366B017C01A3019201C301B2010E94E7
:1005B000F5366D837E838F83988721E133E243E0B4
:1005C00050E4C501B4010E94F53629E134E849E25E
:1005D00052E40E94893469837A838B839C8326E169
:1005E0003BE442E251E4C301B2010E94F5369B01B3
:1005F000AC0169817A818B819C810E948A346983F4
:100600007A838B839C8328E436E246E65EEBC50161
:10061000B4010E94F536A30192010E94F5369B01B8
:10062000AC0169817A818B819C810E948A346983C3
:100630007A838B839C8320EE3FE040EE5BEBC70127
:10064000B6010E94F5369B01AC0169817A818B81EC
:100650009C810E948A3469837A838B839C8328EFF0
:1006600037E840E65DEB6D817E818F8198850E9441
:10067000F5369B01AC0169817A818B819C810E9456
:100680008A3469837A838B839C832CEA3DE041EA38
:100690005AE3C701B6010E94F536A30192010E94F8
:1006A000F5369B01AC0169817A818B819C810E9426
:1006B0008A3469837A838B839C8328EC3FE84FE5F7
:1006C0005AE3C501B4010E94F5362D813E814F8168
:1006D00058850E94F5369B01AC0169817A818B8136
:1006E0009C810E948A3469837A838B839C8321EF67
:1006F0003BE845E056EBC701B6010E94F5362D8177
:100700003E814F8158850E94F5369B01AC0169817D
:100710007A818B819C810E948A346B017C0120E06C
:1007200030E040E551E4C301B2010E94013587FF8A
:100730008AC020E030E040EA52E4C501B4010E94E2
:10074000F13687FD80C020E030E040EE52E4C50184
:10075000B4010E94013518160CF4C0C0A301920127
:1007600060E070E080E591E40E94893420E030E0B0
:1007700040E85EE30E94F5362B013C0120E030E0CA
:100780004EEB52E4C501B4010E9489344B015C0177
:1007900020E030E0A9010E94F13618160CF04AC0A2
:1007A000A501940160E070E088E891E40E9489343A
:1007B0002EE33DEE40E75DE30E94F5360E945C3794
:1007C0009B01AC01C301B2010E94F5369B01AC0153
:1007D000C701B6010E9489346B017C0189858111B2
:1007E00010C020E030E040E052E4C701B6010E94B2
:1007F000893426E838E34EE05FE30E94F5366B016A
:100800007C01C701B60129960FB6F894DEBF0FBE72
:10081000CDBFDF91CF911F910F91FF90EF90DF90AF
:10082000CF90BF90AF909F908F907F906F905F9090
:100830004F90089520E030E048E851E4C501B4014C
:100840000E948A34B5CF20E030E04AEA52E4C30186
:10085000B2010E94F13618160CF0C0CF20E030E053
:1008600040EA52E4C501B4010E94F13687FDB6CFDB
:1008700020E030E04EEA52E4C501B4010E940135A7
:1008800018160CF4ABCF20E030E04AEA52E4C30182
:10089000B2010E9489342DEC3CEC4CEC5DE30E94EB
:1008A000F5362B013C01A501940160E070E08EEA71
:1008B00092E40E9489342DEC3CEC4CE45EE30E940F
:1008C000F5369B01AC01C301B2010E94F5369B01D4
:1008D000AC01C701B6010E948A347ECF20E030E02F
:1008E0004AEA52E4C301B2010E94F13618160CF430
:1008F000BFCF74CF8F929F92AF92BF92CF92DF9271
:10090000EF92FF92CF93DC011796CC91179750E0AE
:1009100061115C2F18962C91189730E0220F331F2D
:100920002A543E4F60E070E0CB01F901E590F4906D
:10093000F70140814C23451315C04B015C01FFEFCB
:100940008F1A9F0AAF0ABF0A1D96CD90DD90ED90D9
:10095000FC9050976C157D058E059F0568F060E052
:1009600070E0CB01CF91FF90EF90DF90CF90BF90E0
:10097000AF909F908F900895C501B401D6CF8F920C
:100980009F92AF92BF92CF92DF92EF92FF920F931E
:100990001F93CF93DF93CDB7DEB7C054D1400FB6CE
:1009A000F894DEBF0FBECDBF8C01F62E0E94BE397B
:1009B000F11029C0F801C184D284E384F4849B013E
:1009C000AC012C193D094E095F0969017A0130ED2E
:1009D000C31637E0D306E104F104A8F48189C05CB2
:1009E000DE4F0FB6F894DEBF0FBECDBFDF91CF91C3
:1009F0001F910F91FF90EF90DF90CF90BF90AF903D
:100A00009F908F900895F8016187728783879487FC
:100A10001482138212821182108261E085810E9409
:100A20002B3C6AEF70E080E090E00E94EF3961E0DB
:100A3000F80185810E94EF3B60E0F80185810E940A
:100A40002B3C64E170E080E090E00E94EF39F89484
:100A500061E0F80185810E942B3C88E290E00E94D1
:100A6000253A62E0F80185810E94EF3B8AE090E040
:100A70000E94253A60E0C8013DDF672B682B692B97
:100A800029F4F801118A789480E0A9CF61E0C801C7
:100A900031DF672B682B692BA1F39E012F5F3F4F3E
:100AA00079015E013FEBA31A3EEFB30A670160E0F4
:100AB000C80120DFF601608371838283938361E044
:100AC000C80118DFF6016483758386839783F8E095
:100AD000CF0ED11CCA14DB0451F7789430E020E02B
:100AE000F70180809180A280B38044815581668126
:100AF000778181149104A104B10429F041155105B5
:100B00006105710519F4F801118ABECFF90183E07E
:100B1000F595E7958A95E1F7E00FF11F8081880F41
:100B200084169506A606B706F0F080832F5F3F4F28
:100B3000F8E0EF0EF11C2832310591F6F8014481FE
:100B400020818181280F3327331F8281280F311D97
:100B50008381820F932F911D99274817190699F6C3
:100B600081E0818B3CCF8160E0CFCF92DF92EF922A
:100B7000FF920F931F93CF93DF93EC01162F642FF7
:100B8000FEDE882339F08E818B3049F018F08551D4
:100B9000823010F160E070E080EC9FE714C06A8161
:100BA00070E090E080E00E949E35112361F026E61F
:100BB00036E646EE5FE30E94F53620E030E040E0A6
:100BC00052E40E948A34DF91CF911F910F91FF90E0
:100BD000EF90DF90CF9008950A81602F6F7770E0DB
:100BE00090E080E00E94A03520E030E040E853E44F
:100BF0000E94F5366B017C016B8170E090E080E033
:100C00000E94A035A70196010E948A342DEC3CEC8D
:100C10004CEC5DE30E94F53607FFC7CF9058C5CF77
:100C2000CF92DF92EF92FF92CF93DF93EC0160E0DF
:100C3000A6DE882339F08E818B3049F018F085517B
:100C4000823090F060E070E080EC9FE706C0688141
:100C500070E090E080E00E949E35DF91CF91FF90A0
:100C6000EF90DF90CF900895688170E090E080E091
:100C70000E949E3520E030E040E853E40E94F536C3
:100C80006B017C01698170E090E080E00E94A035FA
:100C9000A70196010E948A342DEC3CEC4CEC5DE3FC
:100CA0000E94F536DACF611102C00C94EF3B61303F
:100CB000E1F362E0FACF662319F061E00C942B3C7B
:100CC00060E0FCCFCF92DF92EF92FF92CF93882328
:100CD00051F16A017B01CFEFC80F20E030E0A9019C
:100CE000CB01B6010E94013587FF11C0C701B601D3
:100CF00090580E9472359B01AC016C2F70E090E01F
:100D000080E0CF91FF90EF90DF90CF90B2C0C7010D
:100D1000B6010E946D358C2FCF91FF90EF90DF9040
:100D2000CF900C94B53ACF91FF90EF90DF90CF9099
:100D300008950F931F938B019C0183E036952795AF
:100D4000179507958A95D1F7025F1C4F462F47707C
:100D500021E030E0F90102C0EE0FFF1F4A95E2F7F3
:100D6000AF01F80120812423CB010196211102C09B
:100D700090E080E01F910F9108950F931F938B01D6
:100D80009C0183E036952795179507958A95D1F7AD
:100D9000677081E090E001C0880F6A95EAF7F8017A
:100DA000E25FFC4F2081452B31F4809582238083C4
:100DB0001F910F910895822BFACF2F923F924F925D
:100DC0005F926F927F928F929F92AF92BF92CF92DB
:100DD000DF92EF92FF920F931F93CF93DF93D62E64
:100DE000C72E782E692E49015A01280161E08D2D08
:100DF0000E94EF3BCD2DDC2D8E010F5F1F4FA80110
:100E00006D2D7C2D872D962DB8DF20E030E0A901D7
:100E1000C201B7010E94F136181664F4C201B7018D
:100E20000E9472352B01C501B4010E947235A201E6
:100E3000CE0123D0C801DF91CF911F910F91FF9078
:100E4000EF90DF90CF90BF90AF909F908F907F906A
:100E50006F905F904F903F902F900895882341F0BE
:100E60008150682F70E090E080E050E040E085CF56
:100E70000895862FB9010C94B53A9C01FC01EC5100
:100E8000FF4FE491E150E231E0F4F0E08827E45BC9
:100E9000F84F8F4F0C9439405E07650768077F074E
:100EA00094076107A907B507B907D007E507FA074F
:100EB0001108260861073B085208670884B5806856
:100EC00084BD60E0822F0C942B3C84B58062F8CF07
:100ED000809180008C7F826080938000809181006F
:100EE000807E8061682B60938100509387004093DF
:100EF000860080918000806880938000E2CF80919E
:100F000080008C7F82608093800080918100807E51
:100F10008061682B60938100509387004093860026
:100F2000809180008062E8CF809180008C7F826019
:100F30008093800080918100807E8061682B609327
:100F400081005093870040938600809180008860E4
:100F5000D3CF8091B00080688093B0008091B100C1
:100F6000887F682B6093B100ACCF8091B000806225
:100F7000F3CF809190008C7F82608093900080916D
:100F80009100807E8061682B609391005093970060
:100F9000409396008091900080688093900091CF5C
:100FA000809190008C7F826080939000809191006E
:100FB000807E8061682B60939100509397004093EE
:100FC0009600809190008062E8CF809190008C7FA5
:100FD00082608093900080919100807E8061682B78
:100FE00060939100509397004093960080919000F9
:100FF0008860D3CF8091A0008C7F82608093A00016
:101000008091A100807E8061682B6093A100509345
:10101000A7004093A6008091A00080688093A00064
:1010200050CF8091A0008C7F82608093A00080913F
:10103000A100807E8061682B6093A1005093A7007F
:101040004093A6008091A0008062E8CF8091A0002C
:101050008C7F82608093A0008091A100807E80615F
:10106000682B6093A1005093A7004093A600809145
:10107000A0008860D3CF809120018C7F8260809314
:10108000200180912101807E8061682B6093210185
:10109000509327014093260180912001806880931E
:1010A00020010FCF809120018C7F826080932001EE
:1010B00080912101807E8061682B60932101509393
:1010C000270140932601809120018062E8CF809122
:1010D00020018C7F82608093200180912101807E9D
:1010E0008061682B60932101509327014093260172
:1010F000809120018860D3CFCF93C62F61E00E94FA
:10110000EF3B60E08C2FCF910C94EF3B4F925F92BE
:101110006F927F92AF92BF92CF92DF92EF92FF9247
:101120000F931F93CF93DF935C01162FC42FD22F01
:10113000611104C061E0842F0E94EF3B60E08C2FBE
:101140000E942B3C0E94CA392B013C010E94CA39E3
:10115000641975098609970966307105810591053D
:10116000A8F361E08C2F0E942B3C0E94CA392B010E
:101170003C01C02ED12CF12CE12C0E94CA396419FB
:10118000750986099709C616D706E806F906A8F76D
:1011900060E08C2F0E942B3C111104C060E08D2F69
:1011A0000E94EF3B20E432E44FE050E061E08D2FFD
:1011B0000E94583CF5016083718382839383DF91A1
:1011C000CF911F910F91FF90EF90DF90CF90BF9044
:1011D000AF907F906F905F904F90089590E080E087
:1011E00008950F931F93009709F48DC06115710541
:1011F00009F489C0009141021091420220914302FA
:10120000309144020E3F1F4F2F4F3F4F09F06CC0EB
:101210004FEF5FEFBA014093410250934202609357
:101220004302709344024091410250914202609106
:10123000430270914402DC011296ED91FC91808191
:101240009181A281B3818093DA039093DB03A09311
:10125000DC03B093DD0384819581A681B7818093FF
:10126000D6039093D703A093D803B093D903808576
:101270009185A285B3858093D2039093D303A093E5
:10128000D403B093D50384859585A685B7858093CF
:10129000CE039093CF03A093D003B093D1031092C9
:1012A000CA031092CB031092CC031092CD030E947C
:1012B000A8168DEC96E190933303809332039093BC
:1012C00035038093340390933703809336030E9451
:1012D0009715009731F421E030E03093DF0320933D
:1012E000DE031F910F910895009141021091420277
:1012F0002091430230914402DB010D931D932D9305
:101300003C93139790CF8FEF9FEFEBCF8F929F92ED
:10131000AF92BF92CF92DF92EF92FF921F93CF9343
:10132000DF934B015C011091E10382E090E0909328
:10133000DF038093DE0381149104A104B10441F41E
:101340008091E103811104C08091E003C1E081112B
:10135000C0E0C12CD12C76018091E103811106C03F
:101360008091E003811102C0CC23D9F083E090E0AA
:101370009093DF038093DE03CC2381F1CCE9DFEF90
:10138000111102C00E94311ACE01DF91CF911F913D
:10139000FF90EF90DF90CF90BF90AF909F908F9095
:1013A00008956AE070E080E090E00E94EF3980E10B
:1013B000C80E87E2D81EE11CF11C8FEF8816980634
:1013C000A806B80631F0C1E08C149D04AE04BF0439
:1013D00008F0C0E080E00E94CB15BECFD0E0C0E0B6
:1013E000CFCFCF92DF92EF92FF920F931F93CF93C5
:1013F000DF938F3F910511F008F051C02091DE037B
:101400003091DF032330310539F02091DE03309134
:10141000DF032130310531F424E030E03093DF0385
:101420002093DE036A017B01EC0183309105A8F073
:1014300011E0AE01C701B6010E949615AB01BC01D7
:10144000CE011123F9F0DF91CF911F910F91FF9001
:10145000EF90DF90CF900C945A1C8C01000F111F5D
:101460000E5C1C4FD8018D919C91892B09F30E9431
:10147000641C0297E9F6D801ED91FC91CE01199513
:10148000182FD7CF0E947C1C90E080E0DF91CF9195
:101490001F910F91FF90EF90DF90CF9008958FEF05
:1014A0009FEFF4CF80E00C94CB15CF93DF9386E0D1
:1014B00090E09093DF038093DE030E942416EC01FA
:1014C000E2E3F3E086E0DF011D928A95E9F70E94EE
:1014D000C9191092DF031092DE03CE01DF91CF9184
:1014E00008958091E00308958091C9030895609361
:1014F000410270934202809343029093440290E031
:1015000080E00895CF9380918D03882329F0813066
:1015100039F080918E0301C081E080938C0302C07A
:1015200010928C03E0918C0384E0E89FF001112479
:10153000EE59FC4F85A596A5A7A5B0A98093880371
:1015400090938903A0938A03B0938B038FEF8093CA
:101550008C03C1E020E030E0A90160911402709199
:10156000150280911602909117020E940135811197
:1015700001C0C0E08091350AC827C093350A84E0D5
:101580008093390ACF910895CF9380919C0388234B
:1015900029F0813039F080919D0301C081E0809372
:1015A0009B0302C010929B03E0919B0384E0E89FA1
:1015B000F0011124E256FC4F80819181A281B38118
:1015C0008093970390939803A0939903B0939A0301
:1015D0008FEF80939B03C1E020E030E0A901609190
:1015E00018027091190280911A0290911B020E94B8
:1015F0000135811101C0C0E08091340AC827C09331
:10160000340A84E08093380ACF910895FC0191E078
:101610008091A703811190E091830895CF92DF928A
:10162000EF92FF926B017C019F7720E030E040E871
:1016300059E50E94013587FF2BC020E030E040E0F3
:101640005FE3C701B6010E94F13687FD0EC020E0BE
:1016500030E040E05FE3C701B6010E948A34FF90AA
:10166000EF90DF90CF900C94DB3520E030E040E04D
:101670005FEBC701B6010E94F136181684F420E032
:1016800030E0A901C701B6010E94F5366B017C016B
:10169000C701B601FF90EF90DF90CF90089520E052
:1016A00030E040E05FE3C701B6010E948934FF905B
:1016B000EF90DF90CF900C94EE348F929F92AF9288
:1016C000BF92CF92DF92EF92FF920F931F93CF932F
:1016D000DF9300D000D0CDB7DEB78091A7038F5F36
:1016E000853008F017C18093A70380912E0A8111DD
:1016F00010922E0A0AE023E342E361E0CE01019654
:1017000005DD69817A818B819C810E949E352EEA5C
:1017100034ED43EB59E30E94F53620E030E040E041
:101720005FE30E94F53620911C0230911D0240912A
:101730001E0250911F020E94F53660933C0A70937E
:101740003D0A80933E0A90933F0A209120023091F7
:10175000210240912202509123021091340A1093E9
:10176000450A0E94013560E087FF17C0612F70E0D5
:1017700090E080E00E94A0359B01AC0111E06091F7
:1017800024027091250280912602909127020E94E6
:101790000135811101C010E0612F6093460A88E095
:1017A0008ADA209128023091290240912A02509130
:1017B0002B0260913C0A70913D0A80913E0A909103
:1017C0003F0A0E94013560E087FF16C06091450A1C
:1017D00070E090E080E00E94A03511E020912C02A2
:1017E00030912D0240912E0250912F020E9401351E
:1017F000811101C010E0612F6093470A8CE05BDA31
:10180000C0901002D0901102E0901202F0901302EA
:10181000A70196016091F6097091F7098091F80986
:101820009091F9090E940135882341F0C092F60990
:10183000D092F709E092F809F092F90966E370E0B6
:1018400080E090E00E948F019093F5098093F40965
:1018500043E050E0BE016B5F7F4F0E947E0120910C
:10186000380230913902AD81BE810E94414021E1B0
:1018700096958795779567952A95D1F76093400A55
:1018800065E070E080E090E054DA7C019093210AFA
:101890008093200A8091460A40E050E060E070E8C2
:1018A0008823E1F060913E0270E090E080E00E94C9
:1018B000A03520E030E040E05DE30E94F53620E016
:1018C00034EE48E456E40E94F53620E030E04FE77D
:1018D00053E40E940535AB01BC017058C701F2D931
:1018E00080913B0A811119C081E080933B0A81E01D
:1018F00090E0A0E0B0E080932F0A9093300AA0938C
:10190000310AB093320A8091400A8093440A809150
:10191000420A5AC01092A703E8CE80912F0A9091F4
:10192000300AA091310AB091320A0197A109B10998
:1019300087309105A105B10508F0EBC1FC018827AE
:10194000EB55F34F8F4F0C943940AC0CC10C360D56
:101950008A0DDC0D610EB00C8091450A882399F246
:1019600088E090E0A0E0B0E080932F0A9093300AE6
:10197000A093310AB093320A80913A0A8093440AC4
:101980005DC110913A0AC0903C0AD0903D0AE090A7
:101990003E0AF0903F0A1C33D0F420E030E048E4E7
:1019A00052E4C701B6010E94F136181684F487E0AC
:1019B00090E0A0E0B0E080932F0A9093300AA093CB
:1019C000310AB093320A8CE380933A0A37C120E09F
:1019D00030E040E252E4C701B6010E94013518161A
:1019E00044F120E030E040EF51E4C701B6010E942D
:1019F000F1361816F4F483E090E0A0E0B0E08093B4
:101A00002F0A9093300AA093310AB093320A612FC3
:101A100070E090E080E00E949E352DEC3CEC4CE4C0
:101A20005FE30E94F536FADD0E9472356093440A46
:101A300005C11D3308F491C120E030E048E452E4D0
:101A4000C701B6010E94F13618160CF086C188E075
:101A500090E0A0E0B0E080932F0A9093300AA0932A
:101A6000310AB093320A1093440AE8C080903C0ACD
:101A700090903D0AA0903E0AB0903F0A60913A0AC9
:101A800070E090E080E00E949E356B017C0120E0D8
:101A900030E040EF51E4C501B4010E940135181651
:101AA000DCF020E030E040EA51E4C501B4010E94DE
:101AB000F13618168CF484E090E0A0E0B0E080935A
:101AC0002F0A9093300AA093310AB093320A23E38D
:101AD00033E343E35FE31BC020E030E040E252E445
:101AE000C501B4010E94F13618160CF060C082E006
:101AF00090E0A0E0B0E080932F0A9093300AA0938A
:101B0000310AB093320A26E636E646E65FE3C701BD
:101B1000B60187CF80903C0A90903D0AA0903E0A83
:101B2000B0903F0A60913A0A70E090E080E00E9435
:101B30009E356B017C0120E030E040EA51E4C501B4
:101B4000B4010E9401351816DCF020E030E040E2DC
:101B500051E4C501B4010E94F13687FD11C085E052
:101B600090E0A0E0B0E080932F0A9093300AA09319
:101B7000310AB093320A2AE939E949E15FE3C7CF74
:101B800020E030E040EF51E4C501B4010E94F1369D
:101B900018160CF09CCF83E090E0A0E0B0E08093BA
:101BA0002F0A9093300AA093310AB093320A2DEC99
:101BB0003CEC4CE45FE3ABCFC0903C0AD0903D0AD4
:101BC000E0903E0AF0903F0A20E030E040EA51E425
:101BD000C701B6010E94F1361816C4F484E090E003
:101BE000A0E0B0E080932F0A9093300AA093310ACE
:101BF000B093320A60913A0A70E090E080E00E946F
:101C00009E3523E333E343E35FE30BCF20E030E093
:101C100040E251E4C701B6010E94013587FF6DC063
:101C200086E090E0A0E0B0E080932F0A9093300A25
:101C3000A093310AB093320A1092440A6091350A97
:101C40006093480A8DE037D8C0907C03D0907D0324
:101C5000E0907E03F0907F038FEFC81AD80AE80A5D
:101C6000F80AC0927C03D0927D03E0927E03F0924A
:101C70007F03C701B6010E949E359B01AC016091B4
:101C800080037091810380918203909183030E946D
:101C9000F536609378037093790380937A03909379
:101CA0007B0380918C03882309F462C0813009F49E
:101CB00063C081E090918E03992309F45AC080E0BB
:101CC00058C020E030E040E251E460913C0A70915D
:101CD0003D0A80913E0A90913F0A0E94F13687FDAD
:101CE000ABCF85E090E0A0E0B0E080932F0A909326
:101CF000300AA093310AB093320A60913A0A70E038
:101D000090E080E00E949E352AE939E949E15FE3ED
:101D100088CE8091450A882309F4E9CD10913A0ACA
:101D200020E030E048E452E460913C0A70913D0AC2
:101D300080913E0A90913F0A0E94013518160CF4DA
:101D400092CE82E090E0A0E0B0E080932F0A9093E2
:101D5000300AA093310AB093320A612F70E090E00C
:101D600080E00E949E3526E636E646E65FE359CEE1
:101D700081E080938D0302C010928D0380918D03CA
:101D800094E0899FF0011124EE59FC4FC5A6D6A618
:101D9000E7A6F0AA80938E038FEF80938D03809146
:101DA0009B03882349F0813059F081E090919D0395
:101DB000992319F080E001C081E080939C0302C068
:101DC00010929C0380919C0394E0899FF001112460
:101DD000E256FC4FC082D182E282F38280939D035F
:101DE0008FEF80939C0326960FB6F894DEBF0FBE4C
:101DF000CDBFDF91CF911F910F91FF90EF90DF90BA
:101E0000CF90BF90AF909F908F900895CF92DF9228
:101E1000EF92FF92CF938091370A8150823008F081
:101E20000CC183E08093370A8091360A815082305A
:101E300008F005C183E08093360AC0900402D09078
:101E40000502E0900602F0900702A701960160915A
:101E5000E2097091E3098091E4099091E5090E94FB
:101E60000135882341F0C092E209D092E309E09263
:101E7000E409F092E509C0900802D0900902E090D0
:101E80000A02F0900B02A70196016091E609709199
:101E9000E7098091E8099091E9090E9401358823BA
:101EA00041F0C092E609D092E709E092E809F09289
:101EB000E909C0900002D0900102E0900202F09087
:101EC0000302A70196016091EA097091EB098091E4
:101ED000EC099091ED090E940135882341F0C092F0
:101EE000EA09D092EB09E092EC09F092ED09C0907A
:101EF0000C02D0900D02E0900E02F0900F02A701AC
:101F000096016091DE097091DF098091E00990915E
:101F1000E1090E940135882341F0C092DE09D09288
:101F2000DF09E092E009F092E1090E9410026B01E2
:101F30007C0120E030E0A9016091EA097091EB0991
:101F40008091EC099091ED090E940135882309F4F4
:101F500078C00E940B02A70196010E942302C701CC
:101F6000B6010E94DB356B017C01BED4811170C0CB
:101F7000C701B6018ED481116BC020E030E040E88B
:101F800053E4C701B6010E94F5356B017C0120E0E6
:101F900030E0A9010E94013587FF5DC0C701B6018D
:101FA00090580E94723561956093410A70E090E00C
:101FB00080E00E94A0359B01AC01C1E0609130023D
:101FC0007091310280913202909133020E9401356A
:101FD00018160CF4C0E06C2F8AE00E945B0680911A
:101FE000330A8093420A6091410A70E090E080E0F9
:101FF0000E94A0359B01AC016091340270913502C2
:1020000080913602909137020E9401359091440AE6
:1020100018160CF460C080913F02899FC001112402
:102020009093430A8091370A8823D1F0833009F4D2
:102030004FC0082E000C990B15C080E0F3CE80E055
:10204000FACE0E940602A70196010E94140287CFD1
:10205000C12CD12C7601C701B6010E947235A4CFE4
:1020600082E090E08093370A6BE070E080E090E0DF
:102070000E9499067C019093290A8093280A609116
:10208000430A70E090E080E00E949E35AB01BC0105
:10209000C7010E9462068091430A8093330A8091AF
:1020A000840390918503A0918603B09187030196E4
:1020B000A11DB11D8093840390938503A093860393
:1020C000B0938703CF91FF90EF90DF90CF9008956A
:1020D00081E090E0C7CF9093430A8091360A88232D
:1020E00031F0833049F0082E000C990B02C082E0D9
:1020F00090E08093360AB8CF81E090E0FACF4F921B
:102100005F926F927F928F929F92AF92BF92EF9267
:10211000FF920F931F93CF9384E090E058D380E019
:1021200090E0A0E8BFEB8093A8039093A903A0934D
:10213000AA03B093AB038DEC9CECACECBDE38093B5
:10214000800390938103A0938203B09383038FE96C
:1021500094EBA7E2B9E18093660390936703A093A1
:102160006803B09369038FE898EFA0E9B2E3809326
:102170006A0390936B03A0936C03B0936D0387EA9B
:102180009EEEAFEBB0E780936E0390936F03A09346
:102190007003B093710381E09AE6A1ECB0E98093FB
:1021A000720390937303A0937403B093750386E551
:1021B00093E0909365038093640388E393E09093A6
:1021C0005703809356038BE792E0909339038093F3
:1021D000380390933B0380933A0390933D0380939D
:1021E0003C0390933F0380933E039093410380937D
:1021F000400390934303809342039093450380935D
:102200004403909347038093460329E33AE03093D5
:1022100049032093480328E33AE030934B0320938B
:102220004A0327E33AE030934D0320934C0326E31F
:102230003AE030934F0320934E03909351038093E1
:1022400050039093530380935203909355038093CC
:10225000540386E793E090935B0380935A0386E6EA
:1022600093E0909359038093580388E793E0909309
:102270005D0380935C038FEF80938C0380938D03C9
:1022800010928E0380939C0310929D0390914002C4
:102290009093330A40919E0350919F036091A00355
:1022A0007091A1034093970350939803609399030F
:1022B00070939A0380939B0380913C028093340A2D
:1022C00042E050E064EC7AE081E00E94A237809125
:1022D0008D03882329F0813039F080918E0301C06D
:1022E00081E080938C0302C010928C03E0918C03F8
:1022F00084E0E89FF0011124EE59FC4F85A596A5D6
:10230000A7A5B0A98093880390938903A0938A031B
:10231000B0938B038FEF80938C0380913A0280936C
:10232000350A42E050E062E87AE080E00E94A2379D
:10233000812C912C5401839480922A0A90922B0A2A
:10234000A0922C0AB0922D0A63E382E30E947C08DB
:1023500010922E0A10920A0A80920B0A90920C0A8E
:10236000A0920D0AB0920E0A61E088E00E94530626
:10237000C1E0C0930F0A1092020A8092030A909261
:10238000040AA092050AB092060A61E08CE00E945D
:102390005306C093070A1092EE09809110029091A3
:1023A0001102A0911202B09113028093F60990934A
:1023B000F709A093F809B093F9098092EF09909278
:1023C000F009A092F109B092F20966E370E080E0B2
:1023D00090E00E94D3019093F5098093F409C09393
:1023E000F30910921A0A80921B0A90921C0AA0927A
:1023F0001D0AB0921E0AE12C14EEF12E08E416E438
:1024000020E030E040E85FE365E070E080E090E0ED
:102410000E94DD069093210A8093200AC0931F0A30
:102420001092120A8092130A9092140AA092150A2E
:10243000B092160A61E08DE00E945306C093170A1D
:102440001092D8098091040290910502A091060291
:10245000B09107028093E2099093E309A093E40905
:10246000B093E5098091080290910902A0910A02B7
:10247000B0910B028093E6099093E709A093E809D5
:10248000B093E9098091000290910102A0910202AB
:10249000B09103028093EA099093EB09A093EC09B1
:1024A000B093ED0960910C0270910D0280910E02C3
:1024B00090910F02C3D1882309F4ABC060910C0244
:1024C00070910D0280910E0290910F02B7D181118F
:1024D000ABC04092DE095092DF096092E009709231
:1024E000E10981E090E0A0E0B0E08093D909909309
:1024F000DA09A093DB09B093DC096091E2097091DD
:10250000E3098091E4099091E50988D82B013C0109
:102510006091E6097091E7098091E8099091E909D5
:102520007DD84B015C0120E030E040E853E4C3017A
:10253000B2010E940135CFEF87FF0FC020E030E0ED
:10254000A901C301B2010E94F136C0E087FD05C0B8
:10255000C301B2010E947235C62F20E030E040E88E
:1025600053E4C501B4010E9401356FEF87FF0EC02F
:1025700020E030E0A901C501B4010E94F13660E01D
:1025800087FD04C0C501B4010E9472358C2F0E94E2
:102590000102C1E0C093DD091092FA09812C912C4F
:1025A000540183948092FB099092FC09A092FD094A
:1025B000B092FE0961E08AE00E945306C093FF09D1
:1025C0001092220A8092230A9092240AA092250A4D
:1025D000B092260AE12CF12C8701A80197016BE04B
:1025E00070E080E090E00E94DD069093290A8093DD
:1025F000280AC093270ACF911F910F91FF90EF9067
:10260000BF90AF909F908F907F906F905F904F9012
:10261000089560910C0270910D0280910E029091CC
:102620000F027CD181114ACF40900C0250900D02D4
:1026300060900E0270900F024CCF80910A0A8111B7
:1026400003C081E080930A0A8091020A811103C0CD
:1026500081E08093020A8091EE0981111FC081E020
:102660008093EE098091EF099091F009A091F10912
:10267000B091F2090197A105B10581F48091F309A8
:10268000882361F066E370E080E090E00E948F01B3
:102690009093F5098093F4090E94F60180911A0A3B
:1026A00081112FC081E080931A0A80911B0A9091BA
:1026B0001C0AA0911D0AB0911E0A0197A105B1053F
:1026C00001F580911F0A8823E1F065E070E080E069
:1026D00090E00E9499069093210A8093200A40E09E
:1026E00050E060E070E80E94620665E070E080E023
:1026F00090E00E9499069093210A8093200A0E94FC
:102700002E078091120A811103C081E08093120A82
:102710008091D809811103C081E08093D80980910C
:10272000FA09811103C081E08093FA098091220A9D
:1027300081112EC081E08093220A8091230A90911A
:10274000240AA091250AB091260A0197A105B10596
:10275000F9F48091270A8823D9F06BE070E080E0DB
:1027600090E00E9499069093290A8093280A40E0FD
:1027700050E0BA010E9462066BE070E080E090E0F9
:102780000E9499069093290A8093280A0C942E0798
:10279000089560E070E080E89FE7089560E070E0F1
:1027A00080E89FE7089560E070E080E89FEF08957B
:1027B00060E070E080E89FEF089560E070E080ECFA
:1027C0009FEF089560E070E080EC9FEF0895F5DFE3
:1027D0006093550A7093560A8093570A9093580A4B
:1027E000F1DF6093490A70934A0A80934B0A9093F1
:1027F0004C0ACFDF6093510A7093520A8093530AB8
:102800009093540ACBDF60934D0A70934E0A8093E5
:102810004F0A9093500AC7DF6093590A70935A0A7F
:1028200080935B0A90935C0AC3DF60935D0A7093A8
:102830005E0A80935F0A9093600A0895CF92DF92B8
:10284000EF92FF92CF936B017C01AC019B016091F1
:10285000510A7091520A8091530A9091540A0E9431
:102860000135C1E0882371F0A70196016091590AF2
:1028700070915A0A80915B0A90915C0A0E9401351E
:102880008111C0E08C2FCF91FF90EF90DF90CF901F
:102890000895CF92DF92EF92FF92CF936B017C016C
:1028A000AC019B0160914D0A70914E0A80914F0AD4
:1028B0009091500A0E940135C1E0882371F0A70170
:1028C000960160915D0A70915E0A80915F0A909115
:1028D000600A0E9401358111C0E08C2FCF91FF90DA
:1028E000EF90DF90CF9008950F931F938B019C0181
:1028F0000027112720783F770115110520483F4711
:1029000049F4AB01BC016F77772781E0452B462B5B
:10291000472B09F480E01F910F910895E5CF4F9266
:102920005F926F927F928F929F92AF92BF92CF925F
:10293000DF92EF92FF920F931F93F8944090B903A8
:102940005090BA036090BB037090BC03C090AD037D
:10295000D090AE03E090AF03F090B003452B09F0A8
:10296000A6C09B01AC012419350946095709290164
:102970003A010091B5031091B6032091B70330914D
:10298000B80348015901840C951CA61CB71C80167D
:102990009106A206B306A0F40091B1031091B20310
:1029A0002091B3033091B4030F5F1F4F2F4F3F4F60
:1029B0000093B1031093B2032093B3033093B40395
:1029C0008092B5039092B603A092B703B092B80379
:1029D0000091B1031091B2032091B3033091B4037D
:1029E0008092BD039092BE03A092BF03B092C00339
:1029F0000093C1031093C2032093C3033093C40315
:102A00006093B9037093BA038093BB039093BC03A4
:102A1000A301920160EA76E881E090E00E9408401C
:102A20006C0D7D1D8E1D9F1D6093AD037093AE03D5
:102A30008093AF039093B003009141021091420242
:102A400020914302309144020F3F1F4F2F4F3F4FC1
:102A5000F1F0009141021091420220914302309125
:102A600044020E3F1F4F2F4F3F4F89F0C09041024D
:102A7000D0904202E0904302F090440221E08C1496
:102A80009D04AE04BF0408F420E02093C9037894A9
:102A90001F910F91FF90EF90DF90CF90BF90AF907C
:102AA0009F908F907F906F905F904F9008954B0113
:102AB0005C0184189508A608B708A3019201261B9B
:102AC000370B480B590B6415750586059705E0F023
:102AD00082169306A406B50640F420E030E0A90172
:102AE00081149104A104B104A1F460EA76E881E0C4
:102AF00090E00E940840A7019601261B370B480B67
:102B0000590BCA01B901C3CF82169306A406B506B4
:102B100060F7A501940160EA76E881E090E00E9408
:102B200008406C0D7D1D8E1D9F1DB1CFF8CECF933B
:102B3000DF9300D01F92CDB7DEB71C821B821A82B2
:102B400019821092C5031092C6031092C703109207
:102B5000C803BE016F5F7F4FCE0103960E946D32A6
:102B600069817A818B819C810E948B2B009761F413
:102B7000BE016F5F7F4FCE0103960E94793269815B
:102B80007A818B819C812ED50F900F900F900F90A2
:102B9000DF91CF910895FF920F931F93CF93DF930F
:102BA000082F60E070E0CB010E94EF39FF24F3941E
:102BB0000E94742AEC01892B89F010E0CE3F8FEF40
:102BC000D80769F0002361F160E070E0CB010E945A
:102BD000EF3981E090E0892B59F322C011E025D52F
:102BE000EC01892B21F0CE3F8FEFD80759F7111157
:102BF0001EC011E0229609F410E00E94242AEC0184
:102C0000892B21F0CE3F8FEFD807E1F6111111C0CB
:102C100011E0CE3F8FEFD80709F410E001110BC08F
:102C2000CE01DF91CF911F910F91FF90089511E098
:102C3000E4CF11E0F3CF60E070E0CB010E94EF3908
:102C40001F25812F90E0C7CFCF93DF938091C903D9
:102C5000882321F060E070E0CB014CD635D6D0E07F
:102C6000C0E0892B71F06AE070E080E090E00E94A3
:102C7000EF3981E090DF28D62196C03D27E0D207CA
:102C800081F727D60E94DF2B1092E1031092E00318
:102C90001092DA031092DB031092DC031092DD0332
:102CA0001092D6031092D7031092D8031092D90332
:102CB0001092D2031092D3031092D4031092D50332
:102CC0001092CE031092CF031092D0031092D10332
:102CD0001092CA031092CB031092CC031092CD0332
:102CE0004EEF5FEF6FEF7FEF409341025093420250
:102CF00060934302709344021092C903EDEBF3E03A
:102D000028E0DF011D922A95E9F71092B90310928D
:102D1000BA031092BB031092BC031092B503109239
:102D2000B6031092B7031092B8031092B103109239
:102D3000B2031092B3031092B4031092AD03109239
:102D4000AE031092AF031092B003DF91CF910895BC
:102D50001092ED031092EE031092EF031092F00325
:102D60001092EC038091F5039091F6039093EB039E
:102D70008093EA031092E9031092E8031092E403AF
:102D80001092E5031092E6031092E7031092F2030B
:102D90001092F10390E080E00895CF92DF92EF92DD
:102DA000FF920F931F93CF938C01892B09F055C08D
:102DB0002091F5033091F6038091EA039091EB03A3
:102DC0004091F5035091F6035093EB034093EA03CF
:102DD0002817390781F01092E9031092E803109246
:102DE000E4031092E5031092E6031092E7031092B9
:102DF000F2031092F1038091F5039091F60301978D
:102E000061F58091F1039091F203892B21F4809177
:102E10004502811112C08091F1039091F203019754
:102E2000E1F48091E4039091E503A091E603B09171
:102E3000E7030197A105B10581F41092E403109214
:102E4000E5031092E6031092E7031092450282E038
:102E500090E09093F2038093F1038091F5039091B9
:102E6000F603019709F01CC180910B0490910C04AA
:102E70008017910709F014C180910704909108040C
:102E8000A0910904B0910A04009709F409C12091A6
:102E9000060421110DC0409107045091080460916F
:102EA000090470910A04452B462B472B09F4F8C0FE
:102EB0002091F1033091F2032230310509F0F0C086
:102EC0002091E8032111ECC0FC01C080D180E28098
:102ED000F3808091EC03882309F4D3C08091F80338
:102EE0009091F903892B09F4FDC02091F8033091EA
:102EF000F90381E02230310509F080E02091F803E8
:102F00003091F903C1E02130310549F02091F803F7
:102F10003091F903C1E02230310509F0C0E0882387
:102F200009F456C020910204309103044091040436
:102F300050910504C701B6010E94F13687FD14C007
:102F4000209102043091030440910404509105043F
:102F50006091ED037091EE038091EF039091F00387
:102F60000E94013587FD22C02091020430910304A4
:102F70004091040450910504C701B6010E94F13646
:102F8000181634F520910204309103044091040492
:102F9000509105046091ED037091EE038091EF0371
:102FA0009091F0030E940135811112C08091FA03C3
:102FB0009091FB03A091FC03B091FD03892B8A2B18
:102FC0008B2B19F481E08093E90381E08093E8037F
:102FD000CC2309F456C0209102043091030440919F
:102FE000040450910504C701B6010E94013587FF12
:102FF00014C02091020430910304409104045091C4
:1030000005046091ED037091EE038091EF039091C0
:10301000F0030E94F13687FF22C020910204309114
:1030200003044091040450910504C701B6010E94B5
:103030000135811126C02091020430910304409192
:103040000404509105046091ED037091EE038091AA
:10305000EF039091F0030E94F136181694F48091DA
:10306000FA039091FB03A091FC03B091FD03892B1F
:103070008A2B8B2B19F481E08093E90381E0809304
:10308000E80381E09091E803911180E08093EC03E4
:10309000C092ED03D092EE03E092EF03F092F003C2
:1030A000012B09F067C18091F1039091F203892B04
:1030B000D9F41092F7031092E80380914502882317
:1030C00079F082E090E09093F2038093F103109204
:1030D00045022091F5033091F60381E0232BE9F0BE
:1030E00080E01BC081E00ACF109245028091F70377
:1030F000882349F01092E9031092F2031092F10331
:103100001092F703EDCF8091F5039091F603892B90
:10311000E1F08091E8031092E8032091F1033091EF
:10312000F2032230310509F45EC088F4211531051F
:1031300009F448C02130310509F4F3C01092E903C5
:103140001092E8031092F70338C081E0E6CF2330F5
:10315000310509F4B1C02430310581F74091E40311
:103160005091E5036091E6037091E7034115510525
:103170006105710561F04150510961097109409380
:10318000E4035093E5036093E6037093E7034091F3
:10319000E4035091E5036091E6037091E703452B4A
:1031A000462B472BD9F42091F3033091F4032130BF
:1031B000310509F046C01092E9031092F203109213
:1031C000F1030CC080914502882341F082E090E039
:1031D0009093F2038093F103109245021092E20360
:1031E0008091E903CEC08823C9F38091FA039091BE
:1031F000FB03A091FC03B091FD03181619061A06F3
:103200001B060CF07DC08091F5039091F6030197A9
:1032100009F076C08091FA039091FB03A091FC0322
:10322000B091FD038093E4039093E503A093E6033C
:10323000B093E70383E090E09093F2038093F1036F
:10324000CDCF4091FE035091FF0360910004709137
:103250000104452B462B472BA9F01092E9038091DE
:10326000FE039091FF03A0910004B09101048093AC
:10327000E4039093E503A093E603B093E70381E0B2
:1032800090E0DACF882399F080914602909147022E
:10329000A0914802B09149028093E4039093E50322
:1032A000A093E603B093E70384E090E0C5CF1092CB
:1032B000E90382E090E0C0CF8091E4039091E503C0
:1032C000A091E603B091E7030097A105B10559F07D
:1032D0000197A109B1098093E4039093E503A093BA
:1032E000E603B093E7038091E4039091E503A09196
:1032F000E603B091E703892B8A2B8B2B09F06ECF65
:103300008091460290914702A0914802B0914902F3
:10331000892B8A2B8B2B09F44ECF81E08093E90314
:10332000B3CF4091E4035091E5036091E6037091BF
:10333000E703411551056105710561F041505109DF
:10334000610971094093E4035093E5036093E60338
:103350007093E7034091E4035091E5036091E60325
:103360007091E703452B462B472B09F037CF81118E
:10337000C7CF9FCF8091E203882309F431CF80919A
:10338000E303CF911F910F91FF90EF90DF90CF90CB
:1033900008951092ED031092EE031092EF03109235
:1033A000F0031092EC031092F2031092F1031092CA
:1033B000EB031092EA0310920C0410920B0410928B
:1033C000E9031092E8031092E4031092E5031092CF
:1033D000E6031092E7031092E3031092E2031092C7
:1033E0000704109208041092090410920A04109223
:1033F0000604109202041092030410920404109226
:10340000050488EE93E0A0E0B0E08093460290933C
:103410004702A0934802B09349021092FE03109213
:10342000FF0310920004109201041092FA0310920C
:10343000FB031092FC031092FD031092F90310920B
:10344000F80381E0809345021092F7031092F6038F
:103450001092F5031092F4031092F30390E080E0D1
:1034600008958091F5039091F603892B19F58091C9
:103470004502882351F08091F703811106C081E055
:103480008093E3038093E20308952091F703309142
:10349000450281E090E0332311F090E080E030E0DD
:1034A00082239323892B21F01092E30381E0EACF5A
:1034B0001092E203089582E090E0FA019183808304
:1034C0008FEF9FEF0895CF93DF93EA01009711F0FC
:1034D0000E94F92C1982188290E080E0DF91CF9150
:1034E0000895DB01009719F48FEF8C9308952EEF68
:1034F0002C93FC013F96EF30F10508F034C088278B
:10350000EB57F54E8F4F0C943940B11AAF1AAD1AE4
:10351000AB1AA91AA51AA71AA31AA11A9F1A9C1ABC
:10352000981A941A9A1AB31A80E311968C930895F4
:1035300089E2FBCF82E2F9CF11961C92089583E2D3
:10354000F4CF81E2F2CF81E1F0CF87E2EECF8AE2E1
:10355000ECCF80E1EACF84E2E8CF88E2E6CF86E2F2
:10356000E4CF81E3E2CF80E2E0CF80911904909133
:103570001A04089590931A04809319040895809171
:103580001804089590911804892B809318040895C5
:10359000982F90958091180489238093180408959A
:1035A0008091170408958091150490911604089550
:1035B0006115710559F0FB0130E020E070E060E03A
:1035C0002417350719F06115710511F0CB01089525
:1035D000A081B181A817B90709F4BF012F5F3F4F40
:1035E0003696EECF80911B0481111CC060D266D24A
:1035F00090930E0480930D040E940A250E941C25BE
:1036000090931204809311040E948C290E949329A4
:103610009093100480930F0481E080931B0490E04A
:1036200080E0089584EF9FEF08958F929F92AF926C
:10363000BF92CF92DF92EF92FF920F931F93CF939F
:10364000DF9300D000D000D01F92CDB7DEB71A862E
:10365000198618861F821E821D821C821B821A8276
:10366000198280911B0407EF1FEF882309F49CC087
:103670008E010D5F1F4F9E012B5F3F4FAE01495FD3
:103680005F4FBE01675F7F4F90E080E00E94102B8C
:103690008C01009721F00596029708F0DBC0298580
:1036A0003A852115310509F402C1ED80FE804B8178
:1036B0005C81B701640F751F8F8198858617970706
:1036C00008F4F5C0E20EF31ED7019C91903C09F07E
:1036D0007FC04230510508F47BC011968C91409117
:1036E000190450911A04452B09F49CC0913F08F02D
:1036F00071C02CE1290F2D3008F48BC02DE2290F69
:10370000203108F489C0903C21F48150823008F4C3
:1037100083C088E3890F8B3008F481C091E7C92EFC
:103720009AE1D92EEBE5FAE16D817E81AE014F5F22
:103730005F4F89859A8519955C01C114D104A1F167
:1037400089809A808114910479F18B819C818815FC
:10375000990508F487C010E000E04B815C8170E0BF
:1037600060E0C7010E94634001151105E9F4498139
:103770005A8169857A858D819E81680F791FC5017F
:10378000F6011995E980FA800D811E812F81388517
:1037900049855A856FEF7FEF81E090E00E94AB2A68
:1037A0008C01892B09F056C0C8012A960FB6F894EF
:1037B000DEBF0FBECDBFDF91CF911F910F91FF9064
:1037C000EF90DF90CF90BF90AF909F908F90089533
:1037D00080E085CF30E020E0220F331FF901E35F66
:1037E000FB4F0190F081E02D309709F497CF892F9E
:1037F00090E01995009709F491CFDC011296ED91B4
:10380000FC9113971496CD90DC90309709F08CCFF3
:103810001FC021E030E0E0CF22E030E0DDCF23E048
:1038200030E0DACFD12CC12CE3E6FAE19F3F09F07A
:103830007BCFE0910D04F0910E04309721F4C90183
:1038400004EF1FEF0CC08FEF90E019950097A9F6D9
:1038500004EF1FEF89859A85009709F4A5CF0E9490
:10386000F92CA2CF0E94DA2B8C0189859A850E94BF
:10387000F92C70E060E0C4010E94732B98878F835D
:103880000E94A82A9E838D836F81788561157105BA
:1038900059F0C8010E94582E9A87898706EF1FEFBA
:1038A000892B09F058CF59CF08EF1FEF56CF08EFFB
:1038B0001FEFD0CF20911B04222319F020E00C949D
:1038C000212587EF9FEF08958091190490911A04A4
:1038D00008950E9498290E94F228F5D0EDE0F4E0C6
:1038E00088E0DF011D928A95E9F710921B0490E0B1
:1038F00080E008950C944F2721E040E050E0BA01A9
:103900000C94212586E090E0FA019183808390E079
:1039100080E0089547E050E06EE772E049CEDF9224
:10392000EF92FF920F931F93CF93DF938A01EC01E5
:10393000C60FD71FE0901F04F0902004D9800E948A
:10394000C22BD816190678F082E090E0F801918336
:1039500080838EEF9FEFDF91CF911F910F91FF90AA
:10396000EF90DF900895EF2841F482E090E0F801B5
:103970009183808384EF9FEFEECF898180931E0433
:1039800090E00196F8019183808390E080E0E3CF9E
:10399000CF93DF93EA010E940028882321F00E9440
:1039A000CF2B0E94012882E090E0998388838BEFDF
:1039B0009FEFDF91CF910895CF93DF93EB0186E0E6
:1039C000FB0111928A95E9F78FEF8883D8DD89830F
:1039D000E7DD8A83E8DD9D838C83DF91CF910895B5
:1039E000CF93DF93EA010E940328811109C082E08E
:1039F00090E09983888385EF9FEFDF91CF910895C1
:103A000090E080E0B7DD81E090E09983888390E0EA
:103A100080E0F3CF0F931F93CF93DF93EA018C01E4
:103A2000060F171F0E94032881110BC082E090E04F
:103A30009983888385EF9FEFDF91CF911F910F913D
:103A40000895F8018181823038F082E090E0998316
:103A500088838EEF9FEFF0CF81E090E08BDD88E0F0
:103A600090E09983888390E080E0E6CFCF93DF9366
:103A70000097D1F4EB01FB01329686E0DF011D9245
:103A80008A95E9F78FEF888385E089831A820E94FF
:103A9000C22B8B830E94C12B9D838C8381E08E83FC
:103AA0008F83DF91CF910895DF91CF911ACD8AE86E
:103AB0009CE190931D0480931C04089580911C0444
:103AC00090911D04089510921D0410921C040895F5
:103AD00080911F04909120040895411105C0611543
:103AE00071058105910561F060931F0470932004B6
:103AF00080932104909322044093230481E008954D
:103B000080E00895FF920F931F93CF93DF938A0174
:103B1000EC01C60FD71FF9800E94C22BF8161906B8
:103B200068F082E090E0F801918380838EEF9FEF50
:103B3000DF91CF911F910F91FF9008956C817D814E
:103B40008E819F814B81C9DF811108C082E090E0A6
:103B5000F8019183808384EF9FEFEACF898180937E
:103B60001E0490E00196F8019183808390E080E04C
:103B7000DFCFCF93DF93EA01FC01E60FF71F6481EB
:103B80007581868197814381A8DF811109C082E018
:103B900090E09983888384EF9FEFDF91CF91089520
:103BA00081E090E09983888390E080E0F6CFEFE1B8
:103BB000F4E04081518162817381480F511D611D84
:103BC000711D40835183628373830895CF93C091A5
:103BD0001E044C2F50E060911F0470912004019648
:103BE0000E945A408C2FE3DF10921E04CF9108955B
:103BF000009799F480911F04909120042FEFFB010E
:103C00002083892B59F020911E0430E02F5F3F4F15
:103C10002417350719F4CB01D9CF63CC0895009749
:103C200099F480911F04909120042FEFFB012083D1
:103C3000892B59F020911E0430E02F5F3F4F24174D
:103C4000350719F4CB01C2CF4CCC089523E1AC0168
:103C5000249FC001259F900D1124E0912804F0912C
:103C60002904E80FF91F238134812250310981E0B2
:103C70002230310508F080E008950F931F93CF9311
:103C8000DF9300912A0410912B04D0E0C0E080E083
:103C90000C171D0749F491E0811190E0892FDF9105
:103CA000CF911F910F9108958111F5CFCE01CEDFF5
:103CB0002196EECFA0912804B0912904109729F104
:103CC00020912A0430912B0482179307F0F453E1DA
:103CD000589F9001599F300D1124A20FB31FED91F1
:103CE000FC911197309789F012968C91681768F4BF
:103CF0008BE0689FE00DF11D112480819181892B5B
:103D000021F081E09281491708F080E008959C013C
:103D100043E1429FC001439F900D1124E09128048C
:103D2000F0912904E80FF91F8385823099F481E02E
:103D300090E06581768140914A0250914B02641770
:103D4000750711F490E080E0892B21F081E02230AA
:103D5000310508F080E00895EF92FF920F931F93D2
:103D6000CF93DF93EA01FC01E60FF71F0281138175
:103D7000E480F5804F2D6E2DC8019CDF81110DC0B0
:103D800082E090E0998388838EEF9FEFDF91CF915F
:103D90001F910F91FF90EF900895C80157DF88237E
:103DA00039F082E090E09983888388EF9FEFEECF2F
:103DB0001093510200935002E0925202F09253028B
:103DC00081E090E09983888390E080E0DFCFCF921C
:103DD000DF92EF92FF920F931F93CF93DF937A01BD
:103DE000EC01C60FD71FC0905002D0905102009135
:103DF000520210915302412F602FC6015BDF8111E7
:103E000010C082E090E0F701918380838AEF9FEFFA
:103E1000DF91CF911F910F91FF90EF90DF90CF90A6
:103E20000895C60113DF882341F082E090E0F70196
:103E30009183808388EF9FEFEBCF4C815D816E8112
:103E40007F819A8189818F3F41F082E090E0F70184
:103E5000918380838EEF9FEFDBCFE3E1EC9D9001B8
:103E6000ED9D300D1124E0912804F0912904E20F1A
:103E7000F31F0190F081E02D2BE0029FE00DF11D7A
:103E800011240190F081E02D27E0129FE00DF11D3B
:103E90001124808391838B81828343835483658340
:103EA00076831F5F1093530281E090E0F7019183C6
:103EB000808390E080E0ACCFEF92FF920F931F934E
:103EC000CF93DF937A018C01060F171FC09128044E
:103ED000D0912904209781F021E030E0F80182811F
:103EE000938140912A0450912B048417950710F078
:103EF00030E020E0232B71F482E090E0F701918321
:103F000080838EEF9FEFDF91CF911F910F91FF90F4
:103F1000EF90089543E1489F9001499F300D11248F
:103F2000C20FD31F93DE882341F082E090E0F701B7
:103F30009183808388EF9FEFE6CFF801248135815C
:103F400020383105C8F687818111D6CF4181842F71
:103F500090E08F7E009741F082E090E0F70191833E
:103F6000808386EF9FEFCFCF4F833E832D832681C3
:103F700028871986223010F421E0288721E030E0DC
:103F8000F70131832083BFCF88E090E0FA0191836D
:103F9000808390E080E00895FB018FEF808381E1D2
:103FA00081838FEF9FEF9383828380E890E09583F6
:103FB0008483168217820895FB018FEF808391E03E
:103FC000918382839383848384E3858381E090E07B
:103FD000978386830895BF92CF92DF92EF92FF92EC
:103FE0000F931F93CF93DF93DA01FC01E60FF71FC6
:103FF0008181813081F082E090E08D939C938FEFFE
:104000009FEFDF91CF911F910F91FF90EF90DF9085
:10401000CF90BF900895C281D381B48085810681FD
:104020001781E0902804F0902904E114F10439F498
:1040300082E090E08D939C938CEF9FEFE2CF2091F4
:104040002A0430912B04C217D30738F082E090E0A5
:104050008D939C938EEF9FEFD4CFC230D10538F073
:1040600082E090E08D939C9386EF9FEFCACF9B2DCB
:104070009D7FB1F78130A1F7B11005C00130110566
:1040800031F080E004C081E002301105D0F38823D4
:1040900039F36D01CE01DADD882341F082E090E052
:1040A000F6019183808388EF9FEFABCF83E18C9FF4
:1040B000F0018D9FF00D1124EE0DFF1DB38681E000
:1040C000848716870587108A178681E090E0F601BD
:1040D0009183808390E080E094CF4CE050E068EAE8
:1040E00072E066CA8F929F92BF92CF92DF92EF9258
:1040F000FF920F931F93CF93DF93EA01FC01E60F2A
:10410000F71F828193810481B580E0912804F091AA
:104110002904309791F482E090E0998388838CEFB2
:104120009FEFDF91CF911F910F91FF90EF90DF9064
:10413000CF90BF909F908F90089520912A04309146
:104140002B048217930738F082E090E099838883EC
:104150008EEF9FEFE6CF23E1289F6001299FD00CCF
:104160001124EC0DFD1DE080F180E114F10499F2C1
:104170008281081748F78BE0089F80011124E00E28
:10418000F11EF70180819181892B29F6BB20E1F294
:10419000F7E0BF9E40011124C4010E94C02CF7012A
:1041A00091838083E0912804F0912904EC0DFD1D9A
:1041B0000190F081E02DE00FF11F80819181009747
:1041C00039F482E090E0998388838DEF9FEFA9CF47
:1041D000A40170E060E00E94634080912804909107
:1041E0002904C80ED91EF60180819181080F191F7C
:1041F000F801B28281E090E09983888390E080E0CA
:1042000090CFAF92BF92CF92DF92FF920F931F9306
:10421000CF93DF93EA01FC01E60FF71F82819381C0
:10422000F48000912804109129040115110581F4EE
:1042300082E090E0998388838CEF9FEFDF91CF91AC
:104240001F910F91FF90DF90CF90BF90AF90089596
:1042500020912A0430912B048217930738F082E0D2
:1042600090E0998388838EEF9FEFE8CF2FEF2F0D9B
:104270002C3FA8F723E1289F6001299FD00C11242F
:104280000C0D1D1DF80180819181892B89F6FBE0C1
:10429000FF9E50011124C5010E94C02CF80191839A
:1042A0008083E0912804F0912904EC0DFD1D8081AC
:1042B0009181009739F482E090E0998388838DEFB3
:1042C0009FEFBCCFA50170E060E00E946340E091E9
:1042D0002804F0912904EC0DFD1DF28281E090E0AC
:1042E0009983888390E080E0A9CFCF92DF92EF920C
:1042F000FF920F931F93CF93DF93860F971FFC01BD
:10430000028113818091280490912904892B81F0E6
:1043100082E090E0FA01918380838CEF9FEFDF9140
:10432000CF911F910F91FF90EF90DF90CF90089564
:10433000C801B0E0A0E00197A109B1098F3F9F4FEC
:10434000A105B10540F082E090E0FA0191838083FD
:104350008EEF9FEFE4CF7A0183E1809F6001819F20
:10436000D00C1124C6010E94C02CEC01009741F42E
:1043700082E090E0F701918380838DEF9FEFCFCFB4
:10438000A60170E060E00E946340D0932904C093CE
:10439000280410932B0400932A0490E080E02FEF70
:1043A0003FEF41E061E070E08017910741F481E068
:1043B00090E0F7019183808390E080E0B0CF3A8B6A
:1043C000298B1B864C877E876D87188A1F860196EE
:1043D0006396EACFCF92DF92EF92FF920F931F93F3
:1043E000CF93DF93EC01D12CC12C10E000E0F12C35
:1043F000E12C6A816017110609F0CCF483E0689F14
:10440000B0011124AE014F5E5F4FC7010E94252D00
:10441000009721F02FEF3FEF3A8B298BDF91CF915F
:104420001F910F91FF90EF90DF90CF900895E8815A
:10443000F981EC0DFD1D438154818D859E85489F3A
:104440009001499F300D589F300D1124C9010196EC
:104450000115110519F44F8144FD049661E070E0E7
:104460000E94732BE816F90608F47C010F5F1F4FBA
:104470008BE0C80ED11CBDCFF8942091260430915A
:10448000270481E02115310509F080E0232B09F094
:10449000789408952F923F924F925F926F927F92FD
:1044A0008F929F92AF92BF92CF92DF92EF92FF9244
:1044B0000F931F93CF93DF933C01660E771EF3019A
:1044C000828193814C01B12CA12CC0912804D09100
:1044D0002904209769F021E030E060912A0470916E
:1044E0002B048617970710F030E020E0232BD1F43F
:1044F00082E090E0FA01918380838EEF9FEFDF915D
:10450000CF911F910F91FF90EF90DF90CF90BF90D0
:10451000AF909F908F907F906F905F904F903F9063
:104520002F9008958092540290925502A0925602C4
:10453000B092570263E1689F9001699F300D11248A
:10454000C20FD31FF3018181833040F082E090E0FD
:10455000FA019183808386EF9FEFD1CF2A012B81CF
:104560003C81232BF1F4288139819F8191FF2EC05A
:10457000232B09F46FC020912D049A81422F490FFB
:104580005527551FBA0141E050E06138710514F01C
:1045900050E040E0452B09F45DC02A87920F9093CC
:1045A0002D048150823008F481C066DF882309F42D
:1045B000DAC0F3018181813009F48DC008F47BC039
:1045C000823009F4C8C090E080E0ADC0232B09F42C
:1045D00041C020912C049A81E22FE90FFF27FF1F91
:1045E00041E050E0ED3FF10514F050E040E0452B94
:1045F00089F12A87920F90932C04D3CFA081B181A7
:10460000A20FB31F11966C91060F111D0196295F21
:104610003F4F8417950794F38D859E85089F100161
:10462000099F300C189F300C1124C114D104D1F40F
:104630008F8184FF17C00E94C12BF5E02F0E311C23
:1046400021E08215930508F420E0A701455F5F4F44
:1046500021110EC082E090E0F2019183808387EF08
:104660009FEF4DCF0E94C12B2FEF221A320AE8CFC5
:1046700088819981E80EF91EF70114830383FFEF07
:10468000CF1ADF0A7A018A818C151D0409F00CF417
:104690008CCFE881F981EE0DFF1D428150E030E0C2
:1046A00020E010E000E090E080E0B3CFF12CE12CBE
:1046B000D12CC12CE8CF81E090E09C838B83DDDAA4
:1046C000882309F480CF81E090E00E94BA1A80E448
:1046D0000E94C81A78CF89899A89019661F083E08F
:1046E00090E09C838B8382E090E00E94BA1A80E481
:1046F0000E94C21A68CF8D819E8120914A0230911A
:104700004B0282179307D1F460914E0270914F02D1
:10471000AE014F5E5F4F80914C0290914D020E941E
:10472000172E0097E1F2789422E030E0F201318315
:104730002083892BA9F08DEF9FEFE1CE22E0821636
:104740009104A104B1045CF6049748F6CE0142DE60
:10475000188A1F86E6CF82E090E09C838B8333CF5C
:1047600090E080E0CCCE82E090E0F2019183808303
:1047700085EF9FEFC4CE8F929F92AF92BF92CF9260
:10478000DF92EF92FF920F931F93CF93DF93EA0193
:104790008C01060F171FF8018181833098F082E0A9
:1047A00090E09983888386EF9FEFDF91CF911F91EF
:1047B0000F91FF90EF90DF90CF90BF90AF909F90C0
:1047C0008F9008958091280490912904892B61F09D
:1047D00081E090E020912A0430912B04232B11F4E6
:1047E00090E080E0892B39F482E090E0998388831F
:1047F0008EEF9FEFDACF40DE882309F4E1C0F801A5
:104800008181813009F497C0E8F0823099F42091D9
:104810002A0430912B04E0912804F091290490E0BF
:1048200080E041E050E02817390709F0BFC025DAE1
:10483000811117C0789481E090E09983888390E09B
:1048400080E0B3CF20912A0430912B04E09128041A
:10485000F091290490E080E041E050E0281739070A
:1048600041F481E090E00E94BA1A80E40E94C81AE4
:10487000E1CF63817481672B11F0548343830196E8
:104880007396ECCFE0912804F0912904E00FF11F1A
:104890002381348122303105D9F4218932892F3F97
:1048A0003F4FB1F42581368140914A0250914B022D
:1048B0002417350761F5AF014F5E5F4F60914E02DF
:1048C00070914F0280914C0290914D020E94172EE0
:1048D000EFEFCE1ADE0AEE0AFE0A0D5E1F4F409180
:1048E0002A0450912B0470E060E0C416D506E60659
:1048F000F7064CF5009731F27894892B09F49BCF99
:1049000082E090E0998388838DEF9FEF4ECF42E065
:10491000C416D104E104F104DCF624303105C0F6FC
:10492000CF0158DDE0912804F0912904E00FF11F38
:10493000108A1786CDCF10E000E090E080E0C12C17
:10494000D12C7601CCCF0097B9F610E000E0812C95
:10495000912C540183E0E82EF12C1AC0E091280438
:10496000F0912904E00FF11F83819481029749F4AB
:10497000F482E38282E090E00E94BA1A80E40E940E
:10498000C21AFFEF8F1A9F0AAF0ABF0A0D5E1F4FB0
:1049900080912A0490912B04B0E0A0E0881699063B
:1049A000AA06BB06DCF290E080E0A6CF63817481AA
:1049B0006230710511F4548343830196739633CFAB
:1049C00082E090E09983888385EF9FEFEECE009799
:1049D000B9F48FEFFB01808320915402309155028E
:1049E00043E1429FC001439F900D1124E0912804B0
:1049F000F0912904E80FF91F8285FB018183089556
:104A00000C94711A88E090E0FA019183808390E021
:104A100080E008951092270410922604E8E2F4E062
:104A200086E0DF011D928A95E9F78DE690E290938A
:104A300025048093240408958091240490912504F2
:104A400008952F923F924F925F926F927F928F9232
:104A50009F92AF92BF92CF92DF92EF92FF920F930D
:104A60001F93CF93DF93CDB7DEB760970FB6F8945F
:104A7000DEBF0FBECDBFF894E0912604F09127046D
:104A80003196F0932704E09326047894A0912804AB
:104A9000B0912904BA83A983109709F4FAC1E0916F
:104AA0002A04F0912B04EF2B09F4F3C128874B87DC
:104AB0005C876D877E879A878987B88BAF87312C13
:104AC000212CF12C512C412C80912A0490912B0403
:104AD0002816390610F4FF2029F1F8948091260455
:104AE000909127040197909327048093260478944B
:104AF000C20160960FB6F894DEBF0FBECDBFDF9146
:104B0000CF911F910F91FF90EF90DF90CF90BF90CA
:104B1000AF909F908F907F906F905F904F903F905D
:104B20002F900895B10190E080E089D4682EEF8540
:104B3000F889878181FD3DC0838194810397C9F500
:104B4000258136813C832B8389859A8528173907EF
:104B500081F5C101DCD8782E8823A9F1AF85B88909
:104B60001F968D919C915097019621E01D964D9135
:104B70005C918417950709F020E02F83B12CA12CBC
:104B8000EF85F88982818A151B0419F014F0FF2043
:104B9000E9F0F885FF2309F46CC1AF85B889509618
:104BA0001C921E921F97662021F0B10190E080E0D8
:104BB00048D4FFEF2F1A3F0A2F8538892D5E3F4FCB
:104BC000388B2F8781CFB1E0BF83D8CFC1D49E83EC
:104BD0008D83E885EE23E9F0772009F43CC1AF85A9
:104BE000B8891F968D919C91892B79F0BBE0BA9D75
:104BF000C001BB9D900D1124AF85B889ED91FC914A
:104C0000E80FF91F85819681F4D6BFEFAB1ABB0A76
:104C1000B7CF81E0772039F0EF85F8892785308993
:104C2000232B09F080E0F82EE12CA114B10439F413
:104C3000AF85B8891796EC90E4FAEE24E0F8BBE073
:104C4000BA9D6001BB9DD00C1124882309F424C1B6
:104C5000AF85B889ED91FC911197EC0DFD1D438155
:104C600054811D962D913C91429FC001439F900D10
:104C7000529F900D1124E1105DC0019690878783AB
:104C800061E070E0878190852ED5EF85F8892189D4
:104C90003289008111810C0D1D1D2F3F320709F44F
:104CA0004BC0BC01C9010E94582ED80116969C9396
:104CB0008E931597AF85B889ED91FC911197EC0D06
:104CC000FD1D058116810115110509F4CDC0ED8189
:104CD000FE810E0F1F1F1A968C918A0DD8018C939E
:104CE000E1102FC00F5F1F4FAF85B889ED91FC9188
:104CF000EC0DFD1D12870187AF85B889ED91FC9100
:104D0000EC0DFD1D85819681892B09F4A4C080914D
:104D10004A0290914B022B813C812817390709F4F4
:104D200065C0772011F001851285912C812C1A82A3
:104D300019824AC00596A2CF23D6F80196838583AF
:104D4000B9CF8B859C85AD85BE85F8018183928323
:104D5000A383B4830B5F1F4FC7CFE080F180E80CC3
:104D6000F91CD70113966D917C9114978C918F3F0C
:104D700009F473C0E1E0F0E002C0EE0FFF1F8A9576
:104D8000E2F7CF01092E000CAA0BBB0BFB014081FF
:104D900051816281738184239523A623B72321E067
:104DA000892B8A2B8B2B09F420E0D8012C93D70177
:104DB00011968C91080F111DE981FA813196FA83C1
:104DC000E983F7E08F0E911CAF85B889ED91FC91D6
:104DD000EC0DFD1D828129813A818217130611F0A5
:104DE0000CF0BBCF772011F0128701873F8133236E
:104DF00091F1AF85B889ED91FC91EC0DFD1D61E05D
:104E000070E0878190856FD4AF85B889ED91FC9172
:104E1000EC0DFD1DE780F08445815681E1E0F0E076
:104E2000662011F0F0E0E0E00D811E819C01B101EF
:104E3000882799278E1B9F0B8ED32C01892B59F025
:104E4000EF85F88980819181C80ED91ED60115960B
:104E50008D919C91CED5F12CD8CEF701418150E0B7
:104E6000C8010E945A40A3CF86EF482E55245A9479
:104E7000CCCEEF85F889878590890196908B8787BE
:104E8000258536858217930709F08DCE108A1786FF
:104E90008ACE512C412C21CE10E000E02DCF2F9254
:104EA0003F924F925F926F927F928F929F92AF92BA
:104EB000BF92CF92DF92EF92FF920F931F93CF9307
:104EC000DF93809128049091290410E000E0892B61
:104ED000A9F0D2DA0AEF1FEF882381F020902A048C
:104EE00030902B04C0912804D0912904D12CC12CDE
:104EF00010E000E02C143D04A9F47894C801DF917F
:104F0000CF911F910F91FF90EF90DF90CF90BF90C6
:104F1000AF909F908F907F906F905F904F903F9059
:104F20002F900895C6010E94871E882309F18B8166
:104F30009C810397E9F48F859889892BC9F0B60184
:104F400090E080E07CD221E030E0882311F030E076
:104F500020E044245524421A530AB12CA12C912C50
:104F6000812C8A818815190409F038F4188A1F8663
:104F70004FEFC41AD40A6396BDCFE881F981EA0DD8
:104F8000FB1D85819681892BA1F161E070E087810D
:104F90009085A9D33C01DCD28C01E881F981EA0D2E
:104FA000FB1D8185928525813681200F311FAC0143
:104FB000421B530B9A0147815085421B530B70E0F3
:104FC00060E00E946340E881F981EA0DFB1DE78003
:104FD000F084458156819301B601C201BCD28C0197
:104FE000892B39F0E881F981EA0DFB1D85819681D5
:104FF00000D55FEF851A950A8BE0A80EB11CB1CFE2
:105000003BCA789408952F923F924F925F926F928D
:105010007F929F92AF92BF92CF92DF92EF92FF92D8
:105020000F931F93CF93DF9300D000D0CDB7DEB79F
:1050300000912804109129049924939401151105D5
:1050400009F43EC0A0902A04B0902B0415DA982EE3
:105050008823B1F1109229041092280410922B0495
:1050600010922A0410922C0410922D048FEF9FEFBF
:10507000DC018093540290935502A0935602B093A2
:105080005702789480D31E830D83C12CD12C7601D6
:10509000C501B0E0A0E089839A83AB83BC8322245E
:1050A0002A94322C89819A81AB81BC81C816D90699
:1050B000EA06FB06F4F0C8019CD480E40E94C81AFA
:1050C000892D26960FB6F894DEBF0FBECDBFDF91B7
:1050D000CF911F910F91FF90EF90DF90CF90BF90F5
:1050E000AF909F907F906F905F904F903F902F90E8
:1050F0000895AD81BE8115968D919C911697209152
:105100004A0230914B0282179307D1F451968D9148
:105110009C91BCD5ED81FE8180819181B12CA12C27
:10512000412C512C3201892B91F5BFEFCB1ADB0AB0
:10513000EB0AFB0AED81FE817396FE83ED83B2CF0D
:10514000B2E0CB16D104E104F10424F7049710F780
:10515000ED81FE81818992898F3F980709F011D5F1
:10516000AD81BE8152963C922E925197D3CF8A0D3B
:105170009B1DDC018D919C91009709F03AD4BFEF03
:105180004B1A5B0A6B0A7B0AEBE0AE0EB11CAD81D9
:10519000BE818D919C91119712964C9150E070E0D8
:1051A00060E044165506660677060CF322D4BDCFA0
:1051B000CF93DF93EA0127DF811109C082E090E0FD
:1051C0009983888385EF9FEFDF91CF91089581E0E8
:1051D00090E00E94BA1A81E090E09983888390E081
:1051E00080E0F2CF10DF109225041092240408957D
:1051F00042E050E060EF72E00C94D81AFF920F93F7
:105200001F93CF93DF938A01EC01C60FD71FF9805C
:10521000B9D20897F816190671F068F082E090E0AC
:10522000F801918380838EEF9FEFDF91CF911F91E3
:105230000F91FF9008956C817D818E819F814B81BC
:105240000E946D1D811108C082E090E0F8019183F9
:10525000808384EF9FEFE9CFF9800E94681D4F2D76
:1052600050E0BE01685F7F4F0E945A4089810E94D2
:10527000D71D81E090E0F8019183808390E080E089
:10528000D4CFDF92EF92FF920F931F93CF93DF93D0
:105290008A01EC01C60FD71F0E94681D7C01D980CE
:1052A00071D2DD2059F0029721E030E0D8161906BE
:1052B00019F010F030E020E0232B79F482E090E048
:1052C000F801918380838EEF9FEFDF91CF911F9143
:1052D0000F91FF90EF90DF900895EF2841F482E066
:1052E00090E0F8019183808384EF9FEFEECFF98007
:1052F0000E94681D4F2D50E0BE016E5F7F4F0E94DF
:105300005A4089810E94D71D81E090E0F801918385
:10531000808390E080E0D9CF88EF98E290932F04CB
:1053200080932E04089580912E0490912F04089567
:105330000895FC0111821082938382830895DB011A
:105340001D921C92DC011296ED91FC9113977183D2
:10535000608313967C936E9312970895FC0180816D
:105360009181DB018D939C93A081B181109741F0D5
:105370008D919C9191838083892B11F4F383E28337
:105380000895FC0180819181DB018D939C93892B91
:1053900011F473836283718360830895FC01118229
:1053A0001082938382830895CF93DF931F921F927D
:1053B000CDB7DEB71A821982F894BE016F5F7F4FB6
:1053C00085E394E0CBDF89819A81009709F011D3BE
:1053D00089819A81892B89F7BE016F5F7F4F89E3AD
:1053E00094E0BCDF89819A81009709F002D389811A
:1053F0009A81892B89F778940F900F90DF91CF9144
:105400000895CF93DF931F921F92CDB7DEB71A8214
:105410001982F894BE016F5F7F4F81E394E09EDFB5
:1054200089819A81009709F0E4D289819A81892B38
:1054300089F778940F900F90DF91CF91089581E0D4
:10544000089590E080E00895EF92FF920F931F93EC
:10545000CF93DF931F921F92CDB7DEB71A821982C6
:105460008091300407EF1FEF8823A1F1F894BE016B
:105470006F5F7F4F89E394E071DF789489819A812F
:10548000EE24E394F12C892B51F4F894BE016F5F64
:105490007F4F85E394E062DF7894F12CE12C8981E1
:1054A0009A810EEF1FEF0097A9F0FC014281538112
:1054B00064E070E046D68C01892B61F0F894698134
:1054C0007A81C701880F991F880F991F8B5C9B4FAA
:1054D00058DF7894C8010F900F90DF91CF911F9102
:1054E0000F91FF90EF9008950F931F93CF93DF9349
:1054F00000D01F92CDB7DEB71C821B821A821982A0
:105500008091300407EF1FEF8823C1F0AE014D5F9B
:105510005F4F64E070E0CE01019686D68C01892B46
:1055200069F4E981FA818B819C8193838283F89469
:1055300069817A8181E394E002DF7894C8010F9059
:105540000F900F900F90DF91CF911F910F910895C1
:105550008BD7049608958F929F92AF92BF92CF926D
:10556000DF92EF92FF920F931F93CF93DF931F92DF
:105570001F92CDB7DEB71A821982BC016F5F7F4FD1
:105580006330710598F0AA24AA94BA2CC5010F9033
:105590000F90DF91CF911F910F91FF90EF90DF90CF
:1055A000CF90BF90AF909F908F9008954115510577
:1055B00051F3480159018A016C01CADF8815990528
:1055C00011F7E114F104F9F28E0D9F1DA816B9062A
:1055D000D0F2809130048823F1F0F894B501645042
:1055E00071099701AE014F5F5F4FC8010496B1D6B4
:1055F0005C01892B71F489819A81F80193838283FC
:10560000C601880F991F880F991FB8018B5C9B4FAB
:1056100096DE7894BBCF87EFA82EBB24BA94B6CF82
:10562000AF92BF92CF92DF92EF92FF920F931F93B0
:10563000CF93DF931F921F92CDB7DEB71A821982E4
:10564000892B09F047C06115710509F443C0411564
:10565000510509F43FC02115310509F43BC001157E
:105660001105C1F1809130048823B9F179016A01F3
:105670005B01F894BE016F5F7F4F81E394E06EDEC3
:10568000789489819A81009759F1DC0112966D9185
:105690007C91A801049676D68C01E981FA81D50126
:1056A000ED93FC93828193810496F601918380832C
:1056B0004FDFD7018D939C93C8010F900F90DF911E
:1056C000CF911F910F91FF90EF90DF90CF90BF90FF
:1056D000AF9008950FEF1FEFEFCF07EF1FEFECCF65
:1056E0000EEF1FEFE9CFCF93DF93EC01672B71F43F
:1056F000C4D68C179D0760F0B7D62496C80FD91F63
:10570000B6D68C0F9D1FDF91CF910895B3D6F1CF00
:1057100090E080E0F8CF0F931F93CF93DF93209119
:10572000300421112BC08B01EC0185E394E001DEF4
:1057300089E394E0FEDD81E394E0FBDD97D0009700
:10574000C1F49BD670E060E0CEDF48E552E062E055
:1057500070E07BD1009769F48091580290915902D2
:105760009ED6B801CE01D3D4009719F421E020933E
:105770003004DF91CF911F910F91089584EF9FEF37
:10578000F8CF78C67AC6CF93DF937AD6EC01892B0F
:1057900011F40ADE36DECE01DF91CF910895CF936A
:1057A000DF936ED6EC01892B09F4FEDDCE01DF918B
:1057B000CF91089580915802909159020895CF9306
:1057C000DF9380913004D0E0C0E08823D1F06CD624
:1057D000EC01892BB1F4E8DD14DE80915802909140
:1057E0005902CFD1B5D2EC01892B59F485E394E06D
:1057F000D5DD89E394E0D2DD81E394E0CFDD109242
:105800003004CE01DF91CF910895EF92FF920F9374
:105810001F93CF93DF93EC017A018B010F5F1F4F32
:105820000E9DA0010F9D500D1E9D500D112470E086
:1058300060E00E94634090E080E0F0E0E0E02FEF65
:10584000E816F90639F4DF91CF911F910F91FF907F
:10585000EF9008951A8219822883309711F0D2832D
:10586000C1830196FE01C00FD11FEACFAF92BF9254
:10587000CF92DF92EF92FF920F931F93CF93DF931C
:1058800087EE95E07C012CEFE22243E050E06AE5F0
:1058900072E080E692E0E8D38AE5C82E82E0D82E56
:1058A00090E6A92E92E0B92EC0E1D7E08E01D60194
:1058B0004D915D916D01F501619171915F01D8018B
:1058C0001196FC92EE9215965C934E931497139654
:1058D0005C934E93129717967C936E9316979B0149
:1058E0002F5F3F4F249FC001259F900D349F900D47
:1058F000112419969C938E931897E114F10411F0DA
:10590000C70183DFF80180859185E80EF91E065FE7
:105910001F4FF0E6CF16F2E0DF0649F6EFE3F4E0C2
:1059200085EA91E0DF019C011D9221503040E1F7B2
:1059300010923E0410923D041F8E1E8E1BA21AA2CE
:1059400019A218A21DA21CA21FA21EA22A9637E00D
:10595000CE32D30789F710920D0710920C071092E0
:105960000F0710920E0790E080E0DF91CF911F911A
:105970000F91FF90EF90DF90CF90BF90AF90089580
:105980000097F1F0F894A0E6B2E0E0E1F7E030E053
:1059900020E04D915D9148175907A8F0428153814D
:1059A0004115510581F08AE0829FF001839FF00D3F
:1059B0001124E05FF84F80819181009759F4789429
:1059C00090E080E008952F5F3F4F3A9623303105F5
:1059D00001F7F5CFDC0111966D917C9171836083A5
:1059E0004150510953834283FC012193CF017894A4
:1059F0000895009749F1DC018E91863041F4E091E1
:105A00000E07F0910F073097F9F0CD011994863009
:105A1000D8F4282F30E0F8948FEF8C938AE0829F9F
:105A2000F001839FF00D1124E05FF84F8081918198
:105A300012969C938E931197B183A0838281938158
:105A400001969383828378940895CF92DF92EF92A8
:105A5000FF920F931F93CF93DF939C0182E494E016
:105A60008C7F4115510509F489C02115310509F4D0
:105A700085C06115710509F481C08A01AB01B901C6
:105A80006D5F7F4F6C7F9B012F5F3F4F249F7001A5
:105A9000259FF00C349FF00C1124F894E0E1F7E01E
:105AA00023E030E0E901A6A1B7A1C68CD78CCD28B0
:105AB00009F058C0109709F03EC0C0903D04D09046
:105AC0003E0422EA31E02C193D092E153F0530F441
:105AD0007894CFEFDFEF86EF9FEF21C02AE02C9F75
