:1000000005C1000034C1000032C1000030C1000051
:100010002EC100002CC100002AC1000028C1000030
:1000200026C1000024C1000022C1000020C1000040
:100030001EC100001CC100001AC1000018C1000050
:1000400016C1000014C1000012C1000010C1000060
:100050000EC100000CC100000AC100000C940D2567
:1000600006C100000C9435280C946B2800C10000D8
:10007000FEC00000FCC00000FAC00000F8C0000094
:10008000F6C00000F4C00000F2C00000F0C00000A4
:100090000C94C1280C94F728EAC00000E8C00000C6
:1000A000E6C00000E4C00000E2C00000E0C00000C4
:1000B000DEC00000DCC00000DAC00000D8C00000D4
:1000C000D6C00000D4C000000C9466220C944D29C8
:1000D0000C948329CCC000000C94D9290C940F2ACD
:1000E000C6C0000000000A0B02090C0D0E08070331
:1000F00004010000000000000000000000000000FB
:1001000000000000000000000000000000000000EF
:1001100012111000000000000000000000000000AC
:100120000000000000000000000001021020200874
:100130000810204010204080020102010804020142
:1001400001020408102040808040201008040201B1
:10015000800402018040201008040201080402010A
:100160000102040810204080010204081020408091
:1001700005050505070508080808020202020A0A23
:100180000808040404040101010101010101030341
:10019000030303030303040707070C0C0C0C0C0CEC
:1001A0000C0C0202020206060606060606060B0BE9
:1001B0000B0B0B0B0B0B000020002300260029006B
:1001C0002C002F003200000100000301060109018C
:1001D00000002200250028002B002E0031003400F2
:1001E00002010000050108010B01000021002400AC
:1001F00027002A002D003000330001010000040117
:1002000007010A0194282029AC29382A11241FBE8D
:10021000CFEFD1E2DEBFCDBF00E00CBF12E0A0E027
:10022000B2E0EEEEF5E500E00BBF02C007900D92E4
:10023000AC3BB107D9F727E0ACEBB2E001C01D92AF
:10024000A13BB207E1F711E0C6E0D1E000E006C053
:1002500021970109802FFE010E94C42AC230D107D4
:1002600080E00807A9F70E9468230C94F52AC8CEFD
:10027000CF92DF92EF92FF920F931F93E82FF92F07
:1002800005C0015011092109310961F190819623BE
:100290009417B9F305C0015011092109310911F171
:1002A000908196239413F7CFC12CD12CE12CF12C03
:1002B0000AC08FEFC81AD80AE80AF80A0C151D05FB
:1002C0002E053F0579F080818623841791F36C2DEC
:1002D0007D2D8E2D9F2D1F910F91FF90EF90DF9020
:1002E000CF90089560E070E080E090E01F910F9162
:1002F000FF90EF90DF90CF900895CF93C62F61E0ED
:100300000E947A2660E08C2FCF910C947A264F922F
:100310005F926F927F92AF92BF92CF92DF92EF92F5
:10032000FF920F931F93CF93DF935C01162FC42F7F
:10033000D22F611104C061E0842F0E947A2660E010
:100340008C2F0E94B6260E9457252B013C010E944B
:100350005725641975098609970966307105810565
:100360009105A8F361E08C2F0E94B6260E945725C4
:100370002B013C01C02ED12CF12CE12C0E945725E1
:100380006419750986099709C616D706E806F9069D
:10039000A8F760E08C2F0E94B626111104C060E01F
:1003A0008D2F0E947A2620E432E44FE050E061E095
:1003B0008D2F0E94E326F5016083718382839383EE
:1003C000DF91CF911F910F91FF90EF90DF90CF9031
:1003D000BF90AF907F906F905F904F90089590E0A6
:1003E00080E008950F931F93009709F487C061156B
:1003F000710509F483C0009100021091010220915F
:100400000202309103020E3F1F4F2F4F3F4F09F062
:1004100066C04FEF5FEFBA014093000250930102B4
:100420006093020270930302409100025091010216
:100430006091020270910302DC011296ED91FC9131
:1004400080819181A281B3818093240390932503BD
:10045000A0932603B093270384819581A681B78159
:100460008093200390932103A0932203B09323034E
:1004700080859185A285B38580931C0390931D038D
:10048000A0931E03B0931F0384859585A685B78529
:100490008093180390931903A0931A03B0931B033E
:1004A0001092140310921503109216031092170362
:1004B000FDD38BE796E09093BD028093BC029093AE
:1004C000BF028093BE02E1D2009731F421E030E018
:1004D00030932903209328031F910F9108950091D1
:1004E0000002109101022091020230910302DB010F
:1004F0000D931D932D933C93139796CF8FEF9FEF02
:10050000EBCF8F929F92AF92BF92CF92DF92EF92FA
:10051000FF921F93CF93DF934B015C0110912B034C
:1005200082E090E090932903809328038114910442
:10053000A104B10441F480912B03811104C0809186
:100540002A03C1E08111C0E0C12CD12C7601809139
:100550002B03811106C080912A03811102C0CC2394
:10056000D1F083E090E09093290380932803CC237B
:1005700071F1CCE9DFEF111101C021D7CE01DF917C
:10058000CF911F91FF90EF90DF90CF90BF90AF90F1
:100590009F908F9008956AE070E080E090E00E9464
:1005A0007C2580E1C80E87E2D81EE11CF11C8FEF8C
:1005B00088169806A806B80631F0C1E08C149D0490
:1005C000AE04BF0408F0C0E080E093D2C0CFD0E01A
:1005D000C0E0D1CFCF92DF92EF92FF920F931F93A3
:1005E000CF93DF938F3F910511F008F050C0209119
:1005F0002803309129032330310539F02091280355
:10060000309129032130310531F424E030E030937A
:100610002903209328036A017B01EC0182309105B4
:10062000A0F011E0AE01C701B6012ED2AB01BC01B2
:10063000CE011123F9F0DF91CF911F910F91FF901F
:10064000EF90DF90CF900C94080C8C01000F111FDD
:1006500004541D4FD8018D919C91892B11F30E9458
:10066000120C0297F1F6D801ED91FC91CE0119958B
:10067000182FD8CF0E942A0C90E080E0DF91CF9114
:100680001F910F91FF90EF90DF90CF9008958FEF23
:100690009FEFF4CF80E02DC2CF93DF9386E090E010
:1006A00090932903809328037DD2EC01ECEBF2E0D8
:1006B00084E0DF011D928A95E9F719D6109229038B
:1006C00010922803CE01DF91CF91089580912A03E3
:1006D00008958091130308956093000270930102BE
:1006E000809302029093030290E080E008950F93BC
:1006F000CF93DF9300D01F92CDB7DEB78091AE07C6
:1007000081111092AE070AE023E342E361E0CE01DB
:100710000196FDDD69817A818B819C810E94F423A1
:100720002EEA34ED43EB59E30E94592420E030E0F7
:1007300040E05FE30E9459246093A6077093A707E7
:100740008093A8079093A9076091EA027091EB0249
:100750008091EC029091ED026F5F7F4F8F4F9F4F22
:100760006093EA027093EB028093EC029093ED02A7
:100770000E94F4239B01AC016091EE027091EF02A4
:100780008091F0029091F1020E9459246093E60258
:100790007093E7028093E8029093E9020F900F9024
:1007A0000F900F90DF91CF910F910895CF93DF932A
:1007B000E0EDF2E080E090E0A0E8BFEB82A393A33D
:1007C000A4A3B5A38DEC9CECACECBDE3868F978F16
:1007D000A0A3B1A382E595E5ABE4B8EC848395834F
:1007E000A683B7838AEE92EFA8EEB9E4808791875B
:1007F000A287B3878DED93E0A3E0BFE08487958760
:10080000A687B78786E39FE5A1EBBBE4808B918B3E
:10081000A28BB38BA4ECB2E0B383A283E0ECF2E052
:100820001196FC93EE9389E292E091838083938307
:10083000828384EE92E015969C938E93149784EDB8
:1008400092E013969C938E93129786EE92E0179601
:100850009C938E931697CAEAD7E081E090E0A0E0DF
:10086000B0E088839983AA83BB8363E382E345DD99
:100870001C82DF91CF91089508954F925F926F92FD
:100880007F928F929F92AF92BF92CF92DF92EF9220
:10089000FF920F931F93F89440900303509004032A
:1008A0006090050370900603C090F702D090F802A4
:1008B000E090F902F090FA02452B09F0A6C09B01E6
:1008C000AC01241935094609570929013A0100915B
:1008D000FF021091000320910103309102034801AF
:1008E0005901840C951CA61CB71C80169106A20603
:1008F000B306A0F40091FB021091FC022091FD02CE
:100900003091FE020F5F1F4F2F4F3F4F0093FB02AE
:100910001093FC022093FD023093FE028092FF02AE
:1009200090920003A0920103B09202030091FB0297
:100930001091FC022091FD023091FE02809207038B
:1009400090920803A0920903B0920A0300930B034C
:1009500010930C0320930D0330930E036093030355
:10096000709304038093050390930603A3019201FF
:1009700060EA76E881E090E00E94932A6C0D7D1D8C
:100980008E1D9F1D6093F7027093F8028093F90209
:100990009093FA020091000210910102209102024C
:1009A000309103020F3F1F4F2F4F3F4FF1F0009147
:1009B00000021091010220910202309103020E3FC9
:1009C0001F4F2F4F3F4F89F0C0900002D09001027F
:1009D000E0900202F090030221E08C149D04AE042A
:1009E000BF0408F420E02093130378941F910F9123
:1009F000FF90EF90DF90CF90BF90AF909F908F903F
:100A00007F906F905F904F9008954B015C01841828
:100A10009508A608B708A3019201261B370B480BBF
:100A2000590B6415750586059705E0F08216930647
:100A3000A406B50640F420E030E0A9018114910439
:100A4000A104B104A1F460EA76E881E090E00E949C
:100A5000932AA7019601261B370B480B590BCA0195
:100A6000B901C3CF82169306A406B50660F7A501A7
:100A7000940160EA76E881E090E00E94932A6C0D90
:100A80007D1D8E1D9F1DB1CFF8CECF93DF9300D07B
:100A90001F92CDB7DEB71C821B821A821982109278
:100AA0000F03109210031092110310921203BE0153
:100AB0006F5F7F4FCE0103960E94372269817A8152
:100AC0008B819C810E94271B009761F4BE016F5FA0
:100AD0007F4FCE0103960E94432269817A818B81E8
:100AE0009C812ED50F900F900F900F90DF91CF919A
:100AF0000895FF920F931F93CF93DF93082F60E029
:100B000070E0CB010E947C25FF24F3940E94101A10
:100B1000EC01892B89F010E0CE3F8FEFD80769F008
:100B2000002361F160E070E0CB010E947C2581E050
:100B300090E0892B59F322C011E025D5EC01892BD7
:100B400021F0CE3F8FEFD80759F711111EC011E0E9
:100B5000229609F410E00E94C019EC01892B21F0C3
:100B6000CE3F8FEFD807E1F6111111C011E0CE3F53
:100B70008FEFD80709F410E001110BC0CE01DF910F
:100B8000CF911F910F91FF90089511E0E4CF11E0F4
:100B9000F3CF60E070E0CB010E947C251F25812F00
:100BA00090E0C7CFCF93DF9380911303882321F088
:100BB00060E070E0CB014CD635D6D0E0C0E0892BA8
:100BC00071F06AE070E080E090E00E947C2581E0B6
:100BD00090DF28D62196C03D27E0D20781F727D69F
:100BE0000E947B1B10922B0310922A031092240365
:100BF00010922503109226031092270310922003CF
:100C000010922103109222031092230310921C03CE
:100C100010921D0310921E0310921F0310921803CE
:100C20001092190310921A0310921B0310921403CE
:100C30001092150310921603109217034EEF5FEFF8
:100C40006FEF7FEF40930002509301026093020226
:100C50007093030210921303E7E0F3E028E0DF0152
:100C60001D922A95E9F71092030310920403109243
:100C70000503109206031092FF02109200031092D7
:100C80000103109202031092FB021092FC021092D8
:100C9000FD021092FE021092F7021092F8021092DA
:100CA000F9021092FA02DF91CF9108951092370362
:100CB000109238031092390310923A0310923603BF
:100CC00080913F03909140039093350380933403C8
:100CD000109233031092320310922E0310922F03BE
:100CE000109230031092310310923C0310923B0398
:100CF00090E080E00895CF92DF92EF92FF920F9301
:100D00001F93CF938C01892B09F055C020913F038D
:100D100030914003809134039091350340913F031B
:100D200050914003509335034093340328173907FB
:100D300081F0109233031092320310922E0310921E
:100D40002F03109230031092310310923C03109243
:100D50003B0380913F0390914003019761F580919F
:100D60003B0390913C03892B21F480910402811173
:100D700012C080913B0390913C030197E1F4809174
:100D80002E0390912F03A0913003B091310301976E
:100D9000A105B10581F410922E0310922F03109239
:100DA0003003109231031092040282E090E090939D
:100DB0003C0380933B0380913F0390914003019754
:100DC00009F01CC18091550390915603801791073B
:100DD00009F014C18091510390915203A0915303E3
:100DE000B0915403009709F409C1209150032111D7
:100DF0000DC0409151035091520360915303709183
:100E00005403452B462B472B09F4F8C020913B0394
:100E100030913C032230310509F0F0C020913203BB
:100E20002111ECC0FC01C080D180E280F380809170
:100E30003603882309F4D3C0809142039091430381
:100E4000892B09F4FDC0209142033091430381E0D6
:100E50002230310509F080E02091420330914303B4
:100E6000C1E02130310549F0209142033091430324
:100E7000C1E02230310509F0C0E0882309F456C0F2
:100E800020914C0330914D0340914E0350914F03FC
:100E9000C701B6010E94552487FD14C020914C0360
:100EA00030914D0340914E0350914F0360913703B1
:100EB000709138038091390390913A030E94F02396
:100EC00087FD22C020914C0330914D0340914E0389
:100ED00050914F03C701B6010E945524181634F5EE
:100EE00020914C0330914D0340914E0350914F039C
:100EF00060913703709138038091390390913A03E0
:100F00000E94F023811112C0809144039091450307
:100F1000A0914603B0914703892B8A2B8B2B19F4A0
:100F200081E08093330381E080933203CC2309F482
:100F300056C020914C0330914D0340914E03509187
:100F40004F03C701B6010E94F02387FF14C0209110
:100F50004C0330914D0340914E0350914F036091EB
:100F60003703709138038091390390913A030E94BE
:100F7000552487FF22C020914C0330914D034091AE
:100F80004E0350914F03C701B6010E94F023811117
:100F900026C020914C0330914D0340914E03509157
:100FA0004F0360913703709138038091390390911A
:100FB0003A030E945524181694F4809144039091AA
:100FC0004503A0914603B0914703892B8A2B8B2BB5
:100FD00019F481E08093330381E08093320381E050
:100FE00090913203911180E080933603C0923703D1
:100FF000D0923803E0923903F0923A03012B09F0C2
:1010000067C180913B0390913C03892BD9F41092E6
:1010100041031092320380910402882379F082E028
:1010200090E090933C0380933B0310920402209144
:101030003F033091400381E0232BE9F080E01BC0A7
:1010400081E00ACF1092040280914103882349F085
:101050001092330310923C0310923B031092410311
:10106000EDCF80913F0390914003892BE1F0809177
:1010700032031092320320913B0330913C03223023
:10108000310509F45EC088F42115310509F448C022
:101090002130310509F4F3C010923303109232036A
:1010A0001092410338C081E0E6CF2330310509F4C6
:1010B000B1C02430310581F740912E0350912F03A8
:1010C000609130037091310341155105610571053F
:1010D00061F0415051096109710940932E03509309
:1010E0002F03609330037093310340912E0350918E
:1010F0002F036091300370913103452B462B472B12
:10110000D9F420913D0330913E032130310509F09F
:1011100046C01092330310923C0310923B030CC064
:1011200080910402882341F082E090E090933C0398
:1011300080933B031092040210922C03809133039E
:10114000CEC08823C9F38091440390914503A091B8
:101150004603B0914703181619061A061B060CF031
:101160007DC080913F0390914003019709F076C0C4
:101170008091440390914503A0914603B0914703A9
:1011800080932E0390932F03A0933003B0933103E9
:1011900083E090E090933C0380933B03CDCF40915C
:1011A00048035091490360914A0370914B03452BCA
:1011B000462B472BA9F0109233038091480390915E
:1011C0004903A0914A03B0914B0380932E0390935F
:1011D0002F03A0933003B093310381E090E0DACF86
:1011E000882399F08091050290910602A091070250
:1011F000B091080280932E0390932F03A0933003A5
:10120000B093310384E090E0C5CF1092330382E0C5
:1012100090E0C0CF80912E0390912F03A0913003D6
:10122000B09131030097A105B10559F00197A109CB
:10123000B10980932E0390932F03A0933003B093B2
:10124000310380912E0390912F03A0913003B09130
:101250003103892B8A2B8B2B09F06ECF80910502ED
:1012600090910602A0910702B0910802892B8A2B67
:101270008B2B09F44ECF81E080933303B3CF4091A1
:101280002E0350912F03609130037091310341156B
:1012900051056105710561F04150510961097109FC
:1012A00040932E0350932F036093300370933103C8
:1012B00040912E0350912F036091300370913103C0
:1012C000452B462B472B09F037CF8111C7CF9FCF36
:1012D00080912C03882309F431CF80912D03CF9185
:1012E0001F910F91FF90EF90DF90CF900895109293
:1012F0003703109238031092390310923A03109278
:10130000360310923C0310923B0310923503109267
:101310003403109256031092550310923303109227
:10132000320310922E0310922F031092300310926A
:10133000310310922D0310922C031092510310923E
:1013400052031092530310925403109250031092C0
:101350004C0310924D0310924E0310924F0388EEEF
:1013600093E0A0E0B0E08093050290930602A09382
:101370000702B0930802109248031092490310929A
:101380004A0310924B0310924403109245031092AB
:10139000460310924703109243031092420381E0E8
:1013A00080930402109241031092400310923F0375
:1013B00010923E0310923D0390E080E008958091EA
:1013C0003F0390914003892B19F5809104028823F3
:1013D00051F080914103811106C081E080932D037B
:1013E00080932C030895209141033091040281E001
:1013F00090E0332311F090E080E030E082239323EB
:10140000892B21F010922D0381E0EACF10922C035A
:10141000089582E090E0FA01918380838FEF9FEF3F
:101420000895CF93DF93EA01009711F00E949B1C6F
:101430001982188290E080E0DF91CF910895DB015E
:10144000009719F48FEF8C9308952EEF2C93FC01E5
:101450003F96EF30F10508F034C08827ED5CF54F7A
:101460008F4F0C94C42A5F0A5D0A5B0A590A570A17
:10147000530A550A510A4F0A4D0A4A0A460A420AB5
:10148000480A610A80E311968C93089589E2FBCFA4
:1014900082E2F9CF11961C92089583E2F4CF81E2A3
:1014A000F2CF81E1F0CF87E2EECF8AE2ECCF80E1AC
:1014B000EACF84E2E8CF88E2E6CF86E2E4CF81E3B8
:1014C000E2CF80E2E0CF80916303909164030895BE
:1014D0009093640380936303089580916203089559
:1014E00090916203892B809362030895982F9095C1
:1014F0008091620389238093620308958091610340
:10150000089580915F0390916003089561157105BE
:1015100059F0FB0130E020E070E060E0241735076F
:1015200019F06115710511F0CB010895A081B18109
:10153000A817B90709F4BF012F5F3F4F3696EECFCA
:101540008091650381111CC060D266D290935803CC
:10155000809357030E94A7140E94B91490935C03D0
:1015600080935B030E9428190E942F1990935A03BD
:101570008093590381E08093650390E080E00895B3
:1015800084EF9FEF08958F929F92AF92BF92CF9278
:10159000DF92EF92FF920F931F93CF93DF9300D0D0
:1015A00000D000D01F92CDB7DEB71A8619861886F4
:1015B0001F821E821D821C821B821A8219828091C8
:1015C000650307EF1FEF882309F49CC08E010D5FB0
:1015D0001F4F9E012B5F3F4FAE01495F5F4FBE0122
:1015E000675F7F4F90E080E00E94AC1A8C0100970B
:1015F00021F00596029708F0DBC029853A85211570
:10160000310509F402C1ED80FE804B815C81B70198
:10161000640F751F8F8198858617970708F4F5C0AA
:10162000E20EF31ED7019C91903C09F07FC042303E
:10163000510508F47BC011968C9140916303509141
:101640006403452B09F49CC0913F08F071C02CE164
:10165000290F2D3008F48BC02DE2290F203108F41A
:1016600089C0903C21F48150823008F483C088E323
:10167000890F8B3008F481C09FE1C92E9AE0D92EE2
:10168000E9E0FAE06D817E81AE014F5F5F4F8985B1
:101690009A8519955C01C114D104A1F189809A80C1
:1016A0008114910479F18B819C818815990508F446
:1016B00087C010E000E04B815C8170E060E0C70112
:1016C0000E94EE2A01151105E9F449815A816985C4
:1016D0007A858D819E81680F791FC501F601199564
:1016E000E980FA800D811E812F81388549855A85D0
:1016F0006FEF7FEF81E090E00E94471A8C01892B09
:1017000009F056C0C8012A960FB6F894DEBF0FBE86
:10171000CDBFDF91CF911F910F91FF90EF90DF90A0
:10172000CF90BF90AF909F908F90089580E085CF2D
:1017300030E020E0220F331FF901E95AFC4F0190FD
:10174000F081E02D309709F497CF892F90E019951B
:10175000009709F491CFDC011296ED91FC9113975B
:101760001496CD90DC90309709F08CCF1FC021E00B
:1017700030E0E0CF22E030E0DDCF23E030E0DACF30
:10178000D12CC12CE1E1FAE09F3F09F07BCFE09141
:101790005703F0915803309721F4C90104EF1FEF6C
:1017A0000CC08FEF90E019950097A9F604EF1FEF9A
:1017B00089859A85009709F4A5CF0E949B1CA2CF2A
:1017C0000E94761B8C0189859A850E949B1C70E083
:1017D00060E0C4010E940F1B98878F830E94441A07
:1017E0009E838D836F8178856115710559F0C801DD
:1017F0000E94271E9A87898706EF1FEF892B09F021
:1018000058CF59CF08EF1FEF56CF08EF1FEFD0CFBB
:1018100020916503222319F020E00C94BE1487EF79
:101820009FEF0895809163039091640308950E944F
:1018300034190E948E18F5D0E7E5F3E088E0DF0167
:101840001D928A95E9F71092650390E080E0089573
:101850000C94EC1621E040E050E0BA010C94BE1468
:1018600086E090E0FA019183808390E080E0089523
:1018700047E050E06CE272E049CEDF92EF92FF92D7
:101880000F931F93CF93DF938A01EC01C60FD71FED
:10189000E0906903F0906A03D9800E945E1BD8161D
:1018A000190678F082E090E0F801918380838EEF52
:1018B0009FEFDF91CF911F910F91FF90EF90DF90FD
:1018C0000895EF2841F482E090E0F801918380834D
:1018D00084EF9FEFEECF89818093680390E00196BB
:1018E000F8019183808390E080E0E3CFCF93DF9392
:1018F000EA010E949D17882321F00E946B1B0E9421
:101900009E1782E090E0998388838BEF9FEFDF91B1
:10191000CF910895CF93DF93EB0186E0FB01119205
:101920008A95E9F78FEF8883D8DD8983E7DD8A839D
:10193000E8DD9D838C83DF91CF910895CF93DF9372
:10194000EA010E94A017811109C082E090E099830A
:10195000888385EF9FEFDF91CF91089590E080E03D
:10196000B7DD81E090E09983888390E080E0F3CF59
:101970000F931F93CF93DF93EA018C01060F171F7C
:101980000E94A01781110BC082E090E099838883A8
:1019900085EF9FEFDF91CF911F910F910895F8018F
:1019A0008181823038F082E090E0998388838EEFE5
:1019B0009FEFF0CF81E090E08BDD88E090E09983AD
:1019C000888390E080E0E6CFCF93DF930097D1F457
:1019D000EB01FB01329686E0DF011D928A95E9F763
:1019E0008FEF888385E089831A820E945E1B8B8338
:1019F0000E945D1B9D838C8381E08E838F83DF91AA
:101A0000CF910895DF91CF911ACD88E39CE0909318
:101A1000670380936603089580916603909167033E
:101A200008951092670310926603089580916903E8
:101A300090916A030895411105C0611571058105F2
:101A4000910561F06093690370936A0380936B035F
:101A500090936C0340936D0381E0089580E00895B6
:101A6000FF920F931F93CF93DF938A01EC01C60F70
:101A7000D71FF9800E945E1BF816190668F082E0F5
:101A800090E0F801918380838EEF9FEFDF91CF91FB
:101A90001F910F91FF9008956C817D818E819F81B0
:101AA0004B81C9DF811108C082E090E0F801918389
:101AB000808384EF9FEFEACF89818093680390E071
:101AC0000196F8019183808390E080E0DFCFCF938F
:101AD000DF93EA01FC01E60FF71F648175818681BF
:101AE00097814381A8DF811109C082E090E099834A
:101AF000888384EF9FEFDF91CF91089581E090E09C
:101B00009983888390E080E0F6CFE9E6F3E04081B6
:101B1000518162817381480F511D611D711D408388
:101B20005183628373830895CF93C09168034C2FD0
:101B300050E06091690370916A0301960E94E52A62
:101B40008C2FE3DF10926803CF910895009799F4EA
:101B50008091690390916A032FEFFB012083892B09
:101B600059F02091680330E02F5F3F4F241735076D
:101B700019F4CB01D9CF63CC0895009799F48091E3
:101B8000690390916A032FEFFB012083892B59F0A1
:101B90002091680330E02F5F3F4F2417350719F479
:101BA000CB01C2CF4CCC089523E1AC01249FC001EE
:101BB000259F900D1124E0917203F0917303E80FBB
:101BC000F91F238134812250310981E0223031050F
:101BD00008F080E008950F931F93CF93DF93009157
:101BE000740310917503D0E0C0E080E00C171D076E
:101BF00049F491E0811190E0892FDF91CF911F91FD
:101C00000F9108958111F5CFCE01CEDF2196EECF51
:101C1000A0917203B0917303109729F1209174037E
:101C20003091750382179307F0F453E1589F9001A8
:101C3000599F300D1124A20FB31FED91FC91119704
:101C4000309789F012968C91681768F48BE0689F42
:101C5000E00DF11D112480819181892B21F081E01B
:101C60009281491708F080E008959C0143E1429F6A
:101C7000C001439F900D1124E0917203F091730312
:101C8000E80FF91F8385823091F481E090E065814F
:101C900076814091090250910A026417750711F488
:101CA00090E080E0892B19F081E0232B09F080E09F
:101CB0000895EF92FF920F931F93CF93DF93EA0162
:101CC000FC01E60FF71F02811381E480F5804F2DA0
:101CD0006E2DC8019DDF81110DC082E090E09983D7
:101CE00088838EEF9FEFDF91CF911F910F91FF902F
:101CF000EF900895C80158DF882339F082E090E022
:101D00009983888388EF9FEFEECF109310020093A2
:101D10000F02E0921102F092120281E090E09983AA
:101D2000888390E080E0DFCFCF92DF92EF92FF9246
:101D30000F931F93CF93DF937A01EC01C60FD71F48
:101D4000C0900F02D0901002009111021091120267
:101D5000412F602FC6015CDF811110C082E090E04E
:101D6000F701918380838AEF9FEFDF91CF911F91DD
:101D70000F91FF90EF90DF90CF900895C60114DF90
:101D8000882341F082E090E0F7019183808388EF1F
:101D90009FEFEBCF4C815D816E817F819A8189813C
:101DA0008F3F41F082E090E0F701918380838EEFD6
:101DB0009FEFDBCFE3E1EC9D9001ED9D300D112411
:101DC000E0917203F0917303E20FF31F0190F08131
:101DD000E02D2BE0029FE00DF11D11240190F08118
:101DE000E02D27E0129FE00DF11D112480839183E7
:101DF0008B81828343835483658376831F5F109333
:101E0000120281E090E0F7019183808390E080E00E
:101E1000ACCFEF92FF920F931F93CF93DF937A0192
:101E20008C01060F171FC0917203D0917303209786
:101E300081F021E030E0F8018281938140917403C8
:101E4000509175038417950710F030E020E0232BA4
:101E500071F482E090E0F701918380838EEF9FEF31
:101E6000DF91CF911F910F91FF90EF90089543E183
:101E7000489F9001499F300D1124C20FD31F94DE5B
:101E8000882341F082E090E0F7019183808388EF1E
:101E90009FEFE6CFF8012481358120383105C8F65F
:101EA00087818111D6CF4181842F90E08F7E00976A
:101EB00041F082E090E0F7019183808386EF9FEF0D
:101EC000CFCF4F833E832D832681288719862230EA
:101ED00010F421E0288721E030E0F70131832083EE
:101EE000BFCF88E090E0FA019183808390E080E0AA
:101EF0000895FB018FEF808381E181838FEF9FEF56
:101F00009383828380E890E095838483168217828E
:101F10000895FB018FEF808391E091838283938307
:101F2000848384E3858381E090E0978386830895AA
:101F3000DF92EF92FF920F931F93CF93DF93EA010B
:101F4000FC01E60FF71F8181813071F082E090E0A3
:101F5000998388838FEF9FEFDF91CF911F910F912E
:101F6000FF90EF90DF90089582819381D480258146
:101F7000E680F7800091720310917303011511053B
:101F800039F482E090E0998388838CEF9FEFE4CF6F
:101F900040917403509175038417950738F082E0DF
:101FA00090E0998388838EEF9FEFD6CF892B39F00D
:101FB00082E090E09983888386EF9FEFCDCF8D2DCF
:101FC0008D7FB1F72130A1F781E0D11006C091E0FB
:101FD000E916F10431F080E004C0E2E0EE16F1040D
:101FE000D0F3882329F390E080E0DEDD882339F008
:101FF00082E090E09983888388EF9FEFADCFF8016E
:10200000D38681E08487F686E586108A178681E08C
:1020100090E09983888390E080E09ECF4CE050E090
:1020200066E572E073CA8F929F92BF92CF92DF9261
:10203000EF92FF920F931F93CF93DF93EA01FC017E
:10204000E60FF71F828193810481B580E0917203CE
:10205000F0917303309791F482E090E09983888344
:102060008CEF9FEFDF91CF911F910F91FF90EF9039
:10207000DF90CF90BF909F908F9008952091740330
:10208000309175038217930738F082E090E09983CE
:1020900088838EEF9FEFE6CF23E1289F6001299F81
:1020A000D00C1124EC0DFD1DE080F180E114F10451
:1020B00099F28281081748F78BE0089F800111246C
:1020C000E00EF11EF70180819181892B29F6BB205A
:1020D000E1F2F7E0BF9E40011124C4010E94621C9E
:1020E000F70191838083E0917203F0917303EC0D0B
:1020F000FD1D0190F081E02DE00FF11F80819181A5
:10210000009739F482E090E0998388838DEF9FEF08
:10211000A9CFA40170E060E00E94EE2A80917203D2
:1021200090917303C80ED91EF60180819181080F2A
:10213000191FF801B28281E090E09983888390E0D2
:1021400080E090CFAF92BF92CF92DF92FF920F9339
:102150001F93CF93DF93EA01FC01E60FF71F828103
:102160009381F4800091720310917303011511059E
:1021700081F482E090E0998388838CEF9FEFDF9178
:10218000CF911F910F91FF90DF90CF90BF90AF90B4
:10219000089520917403309175038217930738F0E6
:1021A00082E090E0998388838EEF9FEFE8CF2FEF56
:1021B0002F0D2C3FA8F723E1289F6001299FD00C09
:1021C00011240C0D1D1DF80180819181892B89F648
:1021D000FBE0FF9E50011124C5010E94621CF80122
:1021E00091838083E0917203F0917303EC0DFD1DE8
:1021F00080819181009739F482E090E0998388830F
:102200008DEF9FEFBCCFA50170E060E00E94EE2A49
:10221000E0917203F0917303EC0DFD1DF28281E0F9
:1022200090E09983888390E080E0A9CFCF92DF92FD
:10223000EF92FF920F931F93CF93DF93860F971F19
:10224000FC01028113818091720390917303892BA9
:1022500081F082E090E0FA01918380838CEF9FEF20
:10226000DF91CF911F910F91FF90EF90DF90CF9072
:102270000895C801B0E0A0E00197A109B1098F3F1E
:102280009F4FA105B10540F082E090E0FA019183F3
:1022900080838EEF9FEFE4CF7A0183E1809F60011E
:1022A000819FD00C1124C6010E94621CEC01009792
:1022B00041F482E090E0F701918380838DEF9FEFFE
:1022C000CFCFA60170E060E00E94EE2AD0937303A6
:1022D000C0937203109375030093740390E080E041
:1022E0002FEF3FEF41E061E070E08017910741F48C
:1022F00081E090E0F7019183808390E080E0B0CFAF
:102300003A8B298B1B864C877E876D87188A1F86A0
:1023100001966396EACFCF92DF92EF92FF920F93EE
:102320001F93CF93DF93EC01D12CC12C10E000E080
:10233000F12CE12C6A816017110609F0CCF483E0DE
:10234000689FB0011124AE014F5E5F4FC7010E942C
:10235000C71C009721F02FEF3FEF3A8B298BDF91BD
:10236000CF911F910F91FF90EF90DF90CF90089544
:10237000E881F981EC0DFD1D438154818D859E8599
:10238000489F9001499F300D589F300D1124C9017D
:1023900001960115110519F44F8144FD049661E081
:1023A00070E00E940F1BE816F90608F47C010F5F2D
:1023B0001F4F8BE0C80ED11CBDCFF8942091700345
:1023C0003091710381E02115310509F080E0232B64
:1023D00009F0789408952F923F924F925F926F92F6
:1023E0007F928F929F92AF92BF92CF92DF92EF92A5
:1023F000FF920F931F93CF93DF933C01660E771EDE
:10240000F301828193814C01B12CA12CC091720304
:10241000D0917303209769F021E030E0609174035C
:10242000709175038617970710F030E020E0232B9A
:10243000D1F482E090E0FA01918380838EEF9FEFE8
:10244000DF91CF911F910F91FF90EF90DF90CF9090
:10245000BF90AF909F908F907F906F905F904F90C4
:102460003F902F9008958092130290921402A092B0
:102470001502B092160263E1689F9001699F300DCA
:102480001124C20FD31FF3018181833040F082E019
:1024900090E0FA019183808386EF9FEFD1CF2A01EC
:1024A0002B813C81232BF1F4288139819F8191FF7D
:1024B0002EC0232B09F46FC0209177039A81422FFD
:1024C000490F5527551FBA0141E050E061387105A9
:1024D00014F050E040E0452B09F45DC02A87920FCC
:1024E000909377038150823008F481C066DF88239F
:1024F00009F4D8C0F3018181813009F48DC008F45A
:102500007BC0823009F4C6C090E080E0ADC0232BD0
:1025100009F441C0209176039A81E22FE90FFF2749
:10252000FF1F41E050E0ED3FF10514F050E040E0C6
:10253000452B89F12A87920F90937603D3CFA08100
:10254000B181A20FB31F11966C91060F111D019658
:10255000295F3F4F8417950794F38D859E85089FCB
:102560001001099F300C189F300C1124C114D104A4
:10257000D1F48F8184FF17C00E945D1BF5E02F0E00
:10258000311C21E08215930508F420E0A701455F86
:102590005F4F21110EC082E090E0F20191838083B1
:1025A00087EF9FEF4DCF0E945D1B2FEF221A320A5B
:1025B000E8CF88819981E80EF91EF701148303831F
:1025C000FFEFCF1ADF0A7A018A818C151D0409F00A
:1025D0000CF48CCFE881F981EE0DFF1D428150E0B3
:1025E00030E020E010E000E090E080E0B3CFF12C9C
:1025F000E12CD12CC12CE8CF81E090E09C838B832F
:10260000EADA882309F480CF81E090E00E94680A2A
:1026100080E40E94760A78CF89899A89019661F0D0
:1026200083E090E09C838B8382E090E00E94680AC4
:1026300080E40E94700A68CF8D819E8120910902FA
:1026400030910A0282179307D1F460910D027091C4
:102650000E02AE014F5E5F4F80910B0290910C0213
:102660000E94E61D0097E1F2789422E030E0F2014A
:1026700031832083892B99F08DEF9FEFE1CE89285C
:102680008A288B2869F6892B59F6CE0144DE188AF0
:102690001F86E8CF82E090E09C838B8335CF90E06B
:1026A00080E0CECE82E090E0F2019183808385EFDE
:1026B0009FEFC6CE8F929F92AF92BF92CF92DF9242
:1026C000EF92FF920F931F93CF93DF93EA018C0158
:1026D000060F171FF8018181833098F082E090E0A7
:1026E0009983888386EF9FEFDF91CF911F910F91A0
:1026F000FF90EF90DF90CF90BF90AF909F908F9022
:1027000008958091720390917303892B61F081E0A9
:1027100090E02091740330917503232B11F490E025
:1027200080E0892B39F482E090E0998388838EEFF2
:102730009FEFDACF42DE882309F4DFC0F801818100
:10274000813009F495C0E8F0823099F42091740347
:1027500030917503E0917203F091730390E080E093
:1027600041E050E02817390709F0BDC034DA811183
:1027700017C0789481E090E09983888390E080E0AE
:10278000B3CF2091740330917503E0917203F091FF
:10279000730390E080E041E050E02817390741F4EE
:1027A00081E090E00E94680A80E40E94760AE1CF0E
:1027B00063817481672B11F0548343830196739670
:1027C000ECCFE0917203F0917303E00FF11F2381CE
:1027D000348122303105D9F4218932892F3F3F4F8E
:1027E000B1F4258136814091090250910A022417E3
:1027F000350761F5AF014F5E5F4F60910D0270913B
:102800000E0280910B0290910C020E94E61DEFEFE8
:10281000CE1ADE0AEE0AFE0A0D5E1F4F40917403C7
:102820005091750370E060E0C416D506E606F70621
:102830003CF5009731F27894892B09F49BCF82E024
:1028400090E0998388838DEF9FEF4ECFC114D10420
:10285000E104F104E1F6232BD1F6CF015CDDE09138
:102860007203F0917303E00FF11F108A1786CFCF28
:1028700010E000E090E080E0C12CD12C7601CECFBA
:102880000097C9F610E000E0812C912C540183E000
:10289000E82EF12C1AC0E0917203F0917303E00F5F
:1028A000F11F83819481029749F4F482E38282E0EC
:1028B00090E00E94680A80E40E94700AFFEF8F1A7D
:1028C0009F0AAF0ABF0A0D5E1F4F8091740390915B
:1028D0007503B0E0A0E088169906AA06BB06DCF2F4
:1028E00090E080E0A8CF638174816230710511F4BB
:1028F000548343830196739635CF82E090E09983A9
:10290000888385EF9FEFF0CE0097B9F48FEFFB013E
:102910008083209113023091140243E1429FC00151
:10292000439F900D1124E0917203F0917303E80F1F
:10293000F91F8285FB01818308950C941F0A88E0AA
:1029400090E0FA019183808390E080E008951092F6
:10295000710310927003E2E7F3E086E0DF011D925D
:102960008A95E9F78EE090E190936F0380936E0370
:10297000089580916E0390916F0308952F923F9276
:102980004F925F926F927F928F929F92AF92BF927F
:10299000CF92DF92EF92FF920F931F93CF93DF932B
:1029A000CDB7DEB760970FB6F894DEBF0FBECDBFD0
:1029B000F894E0917003F09171033196F0937103F4
:1029C000E09370037894A0917203B0917303BA837B
:1029D000A983109709F4FAC1E0917403F09175038B
:1029E000EF2B09F4F3C128874B875C876D877E87BF
:1029F0009A878987B88BAF87312C212CF12C512CE9
:102A0000412C80917403909175032816390610F4B7
:102A1000FF2029F1F8948091700390917103019740
:102A200090937103809370037894C20160960FB6FF
:102A3000F894DEBF0FBECDBFDF91CF911F910F91F4
:102A4000FF90EF90DF90CF90BF90AF909F908F90CE
:102A50007F906F905F904F903F902F900895B101BD
:102A600090E080E088D4682EEF85F889878181FD29
:102A70003DC0838194810397C9F5258136813C83CC
:102A80002B8389859A852817390781F5C101EDD8EF
:102A9000782E8823A9F1AF85B8891F968D919C91D6
:102AA0005097019621E01D964D915C9184179507F2
:102AB00009F020E02F83B12CA12CEF85F8898281C9
:102AC0008A151B0419F014F0FF20E9F0F885FF23A4
:102AD00009F46CC1AF85B88950961C921E921F975D
:102AE000662021F0B10190E080E047D4FFEF2F1A7B
:102AF0003F0A2F8538892D5E3F4F388B2F8781CF36
:102B0000B1E0BF83D8CFC0D49E838D83E885EE2308
:102B1000E9F0772009F43CC1AF85B8891F968D9103
:102B20009C91892B79F0BBE0BA9DC001BB9D900DB3
:102B30001124AF85B889ED91FC91E80FF91F8581CB
:102B40009681F9D6BFEFAB1ABB0AB7CF81E07720E9
:102B500039F0EF85F88927853089232B09F080E04B
:102B6000F82EE12CA114B10439F4AF85B889179679
:102B7000EC90E4FAEE24E0F8BBE0BA9D6001BB9D66
:102B8000D00C1124882309F424C1AF85B889ED91B4
:102B9000FC911197EC0DFD1D438154811D962D91E3
:102BA0003C91429FC001439F900D529F900D112474
:102BB000E1105DC001969087878361E070E08781B6
:102BC00090852DD5EF85F889218932890081118181
:102BD0000C0D1D1D2F3F320709F44BC0BC01C9016C
:102BE0000E94271ED80116969C938E931597AF8549
:102BF000B889ED91FC911197EC0DFD1D05811681B1
:102C00000115110509F4CDC0ED81FE810E0F1F1FC6
:102C10001A968C918A0DD8018C93E1102FC00F5F0A
:102C20001F4FAF85B889ED91FC91EC0DFD1D12870A
:102C30000187AF85B889ED91FC91EC0DFD1D858173
:102C40009681892B09F4A4C08091090290910A020F
:102C50002B813C812817390709F465C0772011F0D2
:102C600001851285912C812C1A8219824AC0059601
:102C7000A2CF28D6F80196838583B9CF8B859C8512
:102C8000AD85BE85F80181839283A383B4830B5FF6
:102C90001F4FC7CFE080F180E80CF91CD7011396D5
:102CA0006D917C9114978C918F3F09F473C0E1E092
:102CB000F0E002C0EE0FFF1F8A95E2F7CF01092E68
:102CC000000CAA0BBB0BFB01408151816281738117
:102CD00084239523A623B72321E0892B8A2B8B2BD2
:102CE00009F420E0D8012C93D70111968C91080F9C
:102CF000111DE981FA813196FA83E983F7E08F0E9D
:102D0000911CAF85B889ED91FC91EC0DFD1D828180
:102D100029813A818217130611F00CF0BBCF77207E
:102D200011F0128701873F81332391F1AF85B88974
:102D3000ED91FC91EC0DFD1D61E070E087819085C7
:102D40006ED4AF85B889ED91FC91EC0DFD1DE78047
:102D5000F08445815681E1E0F0E0662011F0F0E07A
:102D6000E0E00D811E819C01B101882799278E1B0F
:102D70009F0B8DD32C01892B59F0EF85F889808129
:102D80009181C80ED91ED60115968D919C91D3D5EF
:102D9000F12CD8CEF701418150E0C8010E94E52A0C
:102DA000A3CF86EF482E55245A94CCCEEF85F889D0
:102DB000878590890196908B878725853685821730
:102DC000930709F08DCE108A17868ACE512C412C9C
:102DD00021CE10E000E02DCF2F923F924F925F92D4
:102DE0006F927F928F929F92AF92BF92CF92DF921B
:102DF000EF92FF920F931F93CF93DF938091720313
:102E00009091730310E000E0892BA9F0D6DA0AEF65
:102E10001FEF882381F02090740330907503C091D8
:102E20007203D0917303D12CC12C10E000E02C145C
:102E30003D04A9F47894C801DF91CF911F910F91BF
:102E4000FF90EF90DF90CF90BF90AF909F908F90CA
:102E50007F906F905F904F903F902F900895C601A4
:102E60000E94350E882309F18B819C810397E9F438
:102E70008F859889892BC9F0B60190E080E07BD2DC
:102E800021E030E0882311F030E020E04424552494
:102E9000421A530AB12CA12C912C812C8A818815BD
:102EA000190409F038F4188A1F864FEFC41AD40A9F
:102EB0006396BDCFE881F981EA0DFB1D858196817E
:102EC000892BA1F161E070E087819085A8D33C0156
:102ED000DBD28C01E881F981EA0DFB1D81859285A9
:102EE00025813681200F311FAC01421B530B9A0103
:102EF00047815085421B530B70E060E00E94EE2A30
:102F0000E881F981EA0DFB1DE780F0844581568157
:102F10009301B601C201BBD28C01892B39F0E88143
:102F2000F981EA0DFB1D8581968105D55FEF851A34
:102F3000950A8BE0A80EB11CB1CF3FCA78940895D2
:102F40002F923F924F925F926F927F929F92AF9299
:102F5000BF92CF92DF92EF92FF920F931F93CF9386
:102F6000DF9300D000D0CDB7DEB70091720310918F
:102F70007303992493940115110509F43EC0A090A0
:102F80007403B090750319DA982E8823B1F110926A
:102F900073031092720310927503109274031092CF
:102FA0007603109277038FEF9FEFDC01809313027B
:102FB00090931402A0931502B093160278947FD3D5
:102FC0001E830D83C12CD12C7601C501B0E0A0E099
:102FD00089839A83AB83BC8322242A94322C8981EF
:102FE0009A81AB81BC81C816D906EA06FB06F4F0CB
:102FF000C801A1D480E40E94760A892D26960FB6D6
:10300000F894DEBF0FBECDBFDF91CF911F910F911E
:10301000FF90EF90DF90CF90BF90AF909F907F9008
:103020006F905F904F903F902F900895AD81BE813B
:1030300015968D919C9116972091090230910A0264
:1030400082179307D1F451968D919C91EED5ED8125
:10305000FE8180819181B12CA12C412C512C320117
:10306000892B89F5BFEFCB1ADB0AEB0AFB0AED814E
:10307000FE817396FE83ED83B2CFC114D104E104C7
:10308000F10429F7892B19F7ED81FE818189928955
:103090008F3F980709F029D5AD81BE8152963C92A9
:1030A0002E925197D4CF8A0D9B1DDC018D919C915E
:1030B000009709F040D4BFEF4B1A5B0A6B0A7B0AFA
:1030C000EBE0AE0EB11CAD81BE818D919C9111974C
:1030D00012964C9150E070E060E04416550666068A
:1030E00077060CF328D4BECFCF93DF93EA0128DF15
:1030F000811109C082E090E09983888385EF9FEF7A
:10310000DF91CF91089581E090E00E94680A81E00C
:1031100090E09983888390E080E0F2CF11DF1092F5
:103120006F0310926E03089542E050E06EE972E082
:103130000C94860AFF920F931F93CF93DF938A011B
:10314000EC01C60FD71FF980B9D20897F8161906F7
:1031500071F068F082E090E0F801918380838EEF57
:103160009FEFDF91CF911F910F91FF9008956C8198
:103170007D818E819F814B810E941B0D811108C032
:1031800082E090E0F8019183808384EF9FEFE9CFA4
:10319000F9800E94160D4F2D50E0BE01685F7F4FF1
:1031A0000E94E52A89810E94850D81E090E0F80166
:1031B0009183808390E080E0D4CFDF92EF92FF9202
:1031C0000F931F93CF93DF938A01EC01C60FD71F94
:1031D0000E94160D7C01D98071D2DD2059F0029732
:1031E00021E030E0D816190619F010F030E020E0A8
:1031F000232B79F482E090E0F801918380838EEFB5
:103200009FEFDF91CF911F910F91FF90EF90DF9093
:103210000895EF2841F482E090E0F80191838083E3
:1032200084EF9FEFEECFF9800E94160D4F2D50E0F6
:10323000BE016E5F7F4F0E94E52A89810E94850D45
:1032400081E090E0F8019183808390E080E0D9CF25
:1032500084E998E1909379038093780308958091AD
:1032600078039091790308950895FC0111821082EA
:10327000938382830895DB011D921C92DC011296D8
:10328000ED91FC9113977183608313967C936E93F9
:1032900012970895FC0180819181DB018D939C93AD
:1032A000A081B181109741F08D919C919183808391
:1032B000892B11F4F383E2830895FC0180819181CD
:1032C000DB018D939C93892B11F47383628371834B
:1032D00060830895FC011182108293838283089594
:1032E000CF93DF931F921F92CDB7DEB71A82198258
:1032F000F894BE016F5F7F4F8FE793E0CBDF89814A
:103300009A81009709F017D389819A81892B89F7CF
:10331000BE016F5F7F4F83E893E0BCDF89819A81B4
:10332000009709F008D389819A81892B89F77894CD
:103330000F900F90DF91CF910895CF93DF931F925D
:103340001F92CDB7DEB71A821982F894BE016F5F63
:103350007F4F8BE793E09EDF89819A81009709F088
:10336000EAD289819A81892B89F778940F900F90FE
:10337000DF91CF91089581E0089590E080E0089575
:10338000EF92FF920F931F93CF93DF931F921F92A1
:10339000CDB7DEB71A82198280917A0307EF1FEF4B
:1033A0008823A1F1F894BE016F5F7F4F83E893E01B
:1033B00071DF789489819A81EE24E394F12C892B32
:1033C00051F4F894BE016F5F7F4F8FE793E062DFA7
:1033D0007894F12CE12C89819A810EEF1FEF0097F0
:1033E000A9F0FC014281538164E070E074D68C0145
:1033F000892B61F0F89469817A81C701880F991F40
:10340000880F991F81589C4F58DF7894C8010F90FE
:103410000F90DF91CF911F910F91FF90EF90089542
:103420000F931F93CF93DF9300D01F92CDB7DEB7DA
:103430001C821B821A82198280917A0307EF1FEF88
:103440008823C1F0AE014D5F5F4F64E070E0CE01B4
:103450000196B4D68C01892B69F4E981FA818B81BC
:103460009C8193838283F89469817A818BE793E0CE
:1034700002DF7894C8010F900F900F900F90DF91AA
:10348000CF911F910F910895B9D7049608958F9207
:103490009F92AF92BF92CF92DF92EF92FF920F93E3
:1034A0001F93CF93DF931F921F92CDB7DEB71A827F
:1034B0001982BC016F5F7F4F6330710598F0AA24B9
:1034C000AA94BA2CC5010F900F90DF91CF911F9154
:1034D0000F91FF90EF90DF90CF90BF90AF909F90B3
:1034E0008F9008954115510551F3480159018A0102
:1034F0006C01CADF8815990511F7E114F104F9F29E
:103500008E0D9F1DA816B906D0F280917A038823EC
:10351000F1F0F894B501645071099701AE014F5F65
:103520005F4FC8010496DFD65C01892B71F4898155
:103530009A81F80193838283C601880F991F880FAF
:10354000991FB80181589C4F96DE7894BBCF87EFC6
:10355000A82EBB24BA94B6CFAF92BF92CF92DF927F
:10356000EF92FF920F931F93CF93DF931F921F92BF
:10357000CDB7DEB71A821982892B09F047C06115D1
:10358000710509F443C04115510509F43FC02115E7
:10359000310509F43BC001151105C1F180917A0391
:1035A0008823B9F179016A015B01F894BE016F5F6C
:1035B0007F4F8BE793E06EDE789489819A81009744
:1035C00059F1DC0112966D917C91A8010496A4D664
:1035D0008C01E981FA81D501ED93FC93828193817D
:1035E0000496F601918380834FDFD7018D939C93DE
:1035F000C8010F900F90DF91CF911F910F91FF9015
:10360000EF90DF90CF90BF90AF9008950FEF1FEF36
:10361000EFCF07EF1FEFECCF0EEF1FEFE9CFCF9308
:10362000DF93EC01672B71F4F2D68C179D0760F0E5
:10363000E5D62496C80FD91FE4D68C0F9D1FDF91C5
:10364000CF910895E1D6F1CF90E080E0F8CF0F93CD
:103650001F93CF93DF9320917A0321112BC08B010D
:10366000EC018FE793E001DE83E893E0FEDD8BE77A
:1036700093E0FBDD97D00097C1F4C9D670E060E01D
:10368000CEDF47E152E062E070E081D1009769F45B
:103690008091170290911802CCD6B801CE0101D5C5
:1036A000009719F421E020937A03DF91CF911F91C5
:1036B0000F91089584EF9FEFF8CFA6C6A8C6CF93C9
:1036C000DF93A8D6EC01892B11F40ADE36DECE0199
:1036D000DF91CF910895CF93DF939CD6EC01892B96
:1036E00009F4FEDDCE01DF91CF910895809117029C
:1036F000909118020895CF93DF9380917A03D0E0E0
:10370000C0E08823D1F09AD6EC01892BB1F4E8DD32
:1037100014DE8091170290911802E7D1E8D2EC01F3
:10372000892B59F48FE793E0D5DD83E893E0D2DD70
:103730008BE793E0CFDD10927A03CE01DF91CF913A
:103740000895EF92FF920F931F93CF93DF93EC01B5
:103750007A018B010F5F1F4F0E9DA0010F9D500D31
:103760001E9D500D112470E060E00E94EE2A90E052
:1037700080E0F0E0E0E02FEFE816F90639F4DF91A1
:10378000CF911F910F91FF90EF9008951A821982A7
:103790002883309711F0D283C1830196FE01C00FB8
:1037A000D11FEACFCF92DF92EF92FF920F931F9338
:1037B000CF93DF930CE814E00C7F43E050E069E125
:1037C00072E08FE192E01AD489E1E82E82E0F82ECF
:1037D0009FE1C92E92E0D92ECBEED4E0D7014D91D6
:1037E0005D917D01F601619171916F0119830883EB
:1037F0005D834C835B834A837F836E839B012F5F52
:103800003F4F249FC001259F900D349F900D1124A0
:10381000998788870115110511F0C80192DF888505
:103820009985080F191F2A96FFE1EF16F2E0FF06AF
:10383000A9F6E9E8F3E080E091E0DF019C011D9248
:1038400021503040E1F710928803109287031092C4
:103850000A051092090510920E0510920D0510929E
:103860000C0510920B051092100510920F05109286
:103870001205109211051092140510921305109262
:103880001805109217051092160510921505109242
:103890001A051092190510921C0510921B05109222
:1038A000E8041092E7041092EA041092E90490E010
:1038B00080E0DF91CF911F910F91FF90EF90DF900B
:1038C000CF9008950097F1F0F894AFE1B2E0EBEEFD
:1038D000F4E030E020E04D915D9148175907A8F0E1
:1038E000428153814115510581F08AE0829FF001A8
:1038F000839FF00D1124E551FB4F8081918100974A
:1039000059F4789490E080E008952F5F3F4F3A9605
:103910002330310501F7F5CFDC0111966D917C91D3
:10392000718360834150510953834283FC01219389
:10393000CF0178940895009749F1DC018E9185308C
:1039400041F4E091E904F091EA043097F9F0CD01F7
:1039500019948530D8F4282F30E0F8948FEF8C93A9
:103960008AE0829FF001839FF00D1124E551FB4F07
:103970008081918112969C938E931197B183A0833D
:103980008281938101969383828378940895CF9264
:10399000DF92EF92FF920F931F93CF93DF939C01DF
:1039A0008CE893E08C7F4115510509F49BC02115EB
:1039B000310509F497C06115710509F493C07A01C6
:1039C000AB01B9016D5F7F4F6C7F9B012F5F3F4F54
:1039D000249F8001259F100D349F100D1124F89411
:1039E0002091090530910A05232B59F420911105E6
:1039F000309112052115310569F12017310708F0C2
:103A000058C02091130530911405232B91F4209177
:103A1000110530911205820F931F20911B053091E3
:103A20001C052115310509F441C02017310708F0A4
:103A300056C07894CFEFDFEF86EF9FEFF701D18389
:103A4000C083DF91CF911F910F91FF90EF90DF9096
:103A5000CF900895C3E0D0E0C0908703D090880352
:103A60002DEF30E02C193D092017310710F32AE023
:103A70002C9FF0012D9FF00D1124E551FB4F9183F8
:103A8000808355834483538342837783668311877E
:103A90000087009709F055DE0C0D1D1D109388035B
:103AA00000938703789490E080E0C8CFC4E0D0E032
:103AB000D3CFC3E0D0E02AE02C9FF0012D9FF00D82
:103AC0001124E551FB4F91838083558344835383B5
:103AD000428377836683009729F333DEE3CFC4E024
:103AE000D0E0E9CF8FEF9FEFACCF9C010397029717
:103AF00008F069C0F89484E09AE0482F50E0241759
:103B000035070CF44DC091E08AE0829FF001839F5D
:103B1000F00D1124E551FB4F1182108215821482A1
:103B200013821282178216829923B1F180910905BE
:103B300090910A05892BA9F4209111053091120565
:103B40002115310571F08091870390918803821BC4
:103B5000930B909388038093870310921205109221
:103B600011058091130590911405892BA9F42091DA
:103B70001B0530911C052115310571F080918703DB
:103B800090918803821B930B909388038093870303
:103B900010921C0510921B05789490E080E0089527
:103BA000949FF001959FF00D1124E551FB4F40814A
:103BB0005181452B31F440855185452B11F48150BD
:103BC0009CCF90E0A1CF8FEF9FEF08954115510555
:103BD00049F1009739F16115710521F1F8942091AF
:103BE000E7043091E804232BB9F42091E9043091E3
:103BF000EA04232B89F49093E8048093E7047093FC
:103C0000EA046093E904789425E030E090E080E0F5
:103C1000FA0131832083089578942FEF3FEF86EFE8
:103C20009FEFF6CF8FEF9FEF0895059769F4F89413
:103C30001092E8041092E7041092EA041092E9044A
:103C4000789490E080E008958FEF9FEF08956115DC
:103C5000710519F4F0E0E0E011C08530910581F4C0
:103C6000E091E704F091E8043097A1F3CB010196CD
:103C70001995009779F3FC0185E08193CF010895B0
:103C80009C01235031092230310520F72AE0289F7A
:103C9000D001299FB00D1124A551BB4F2D913C910E
:103CA0001197232BB9F216962D913C911797261751
:103CB000370780F2F89412962D913C9113972115B5
:103CC000310529F0ED91FC911197309711F478941A
:103CD000C1CF4181528111965C934E93215031099D
:103CE00013963C932E93129781937894C7CFE9E86B
:103CF000F4E08EE5DF011D928A95E9F7E9E8F3E04B
:103D000080E091E0DF019C011D9221503040E1F7FD
:103D10001092880310928703EBEEF4E082E3DF0158
:103D20001D928A95E9F7E7EEF4E084E0DF011D9249
:103D30008A95E9F790E080E00895CF93DF93C091F2
:103D40002502D0912602CF3FDC0759F420D490936E
:103D500026028093250297FF09C0D0932602C093C4
:103D6000250284EF9FEFDF91CF91089590E080E0EE
:103D7000FACF8230910528F480931D0590E080E011
:103D800008958FEF9FEF08954F925F926F927F9209
:103D9000AF92BF92CF92DF92EF92FF920F931F9359
:103DA000CF93DF931F921F92CDB7DEB71A8219828D
:103DB000009709F478C06115710509F474C0209169
:103DC00025023091260207EF1FEF2F3F3F4F09F4E6
:103DD00044C06B015C01412C512C3201F12CE12CCF
:103DE00010E000E09E012F5F3F4FA6014E195F09D2
:103DF000B5016E0D7F1D809125029091260226D47B
:103E0000892B09F04AC089819A81009741F4E11415
:103E1000F10429F420911D05222309F441C0E80E84
:103E2000F91EEC14FD04C8F480E8481684E858062E
:103E30008EE16806710418F560E070E0CB015CD695
:103E40002AE0420E511C611C711C0A3F4FEF1407FF
:103E500021F0043F8FEF1807A1F4C8010F900F90D5
:103E6000DF91CF911F910F91FF90EF90DF90CF9056
:103E7000BF90AF907F906F905F904F90089501EF4B
:103E80001FEF81E090E0013F2FEF120711F090E06B
:103E900080E0892B09F4A6CFE0CF04EF1FEFDDCF40
:103EA0000AEF1FEFDACF0FEF1FEFD7CF4F925F92DE
:103EB0006F927F92AF92BF92CF92DF92EF92FF927A
:103EC0000F931F93CF93DF931F921F92CDB7DEB74F
:103ED0001A821982009709F478C06115710509F4F6
:103EE00074C0209125023091260207EF1FEF2F3F6B
:103EF0003F4F09F444C06B015C01412C512C32014D
:103F0000F12CE12C10E000E09E012F5F3F4FA60155
:103F10004E195F09B5016E0D7F1D809125029091AC
:103F200026024AD3892B09F04AC089819A810097D9
:103F300041F4E114F10429F420911D05222309F430
:103F400041C0E80EF91EEC14FD04C8F480E84816E0
:103F500086E9580688E96806710418F560E070E0A3
:103F6000CB01CAD52AE0420E511C611C711C0E3FC8
:103F70004FEF140721F0043F8FEF1807A1F4C80199
:103F80000F900F90DF91CF911F910F91FF90EF90C5
:103F9000DF90CF90BF90AF907F906F905F904F90E9
:103FA000089502EF1FEF81E090E0023F2FEF12072C
:103FB00011F090E080E0892B09F4A6CFE0CF04EF68
:103FC0001FEFDDCF0EEF1FEFDACF0FEF1FEFD7CFD1
:103FD00080912502909126028F3F980749F0CFD219
:103FE000892B49F48FEF9FEF90932602809325024F
:103FF00090E080E0089584EF9FEF0895CF92DF92E4
:10400000EF92FF920F931F93CF93DF9321E041151F
:10401000510509F020E04150510921112CC0DC016B
:10402000FB01D12CC12C21E022C03FEFC31AD30ADF
:104030007D010D911D91E701EA80FB80E016F106FC
:10404000A8F420813181E280F380F182E082338321
:104050002283ED90FC9011979D0122503109E901D6
:10406000F982E88211961C930E9320E03296C416D2
:10407000D506D8F2D2CFDF91CF911F910F91FF904B
:10408000EF90DF90CF900895FC01680F791F90E0CA
:1040900080E0E617F70709F408952191820F911D3A
:1040A000F8CF20911E05211113C047DE009791F42F
:1040B00010922405109223051092220510922105DA
:1040C0001092200510921F0521E020931E050895EF
:1040D00084EF9FEF0895AF92BF92CF92DF92EF925D
:1040E000FF920F931F93CF93DF93009709F460C063
:1040F0004630510508F45CC020911E05C7EFDFEF84
:10410000222309F449C08C01060F171FF801C08053
:10411000D180C114D10409F44EC096012A5F3F4FEB
:104120004217530708F447C07C0180912305909102
:10413000240593838283B6016C5F7F4F5801A60EDE
:10414000B71EC801A1DFF5019183808364E070E0B0
:10415000C8011ADEEC01892BF9F481E090E009DE58
:10416000B601C801049610DEEC01892B91F462E0DF
:1041700070E0C50109DEEC01892B59F4C701DBDBD6
:1041800080912305909124050196909324058093B6
:10419000230590E080E0EDDDCE01DF91CF911F910E
:1041A0000F91FF90EF90DF90CF90BF90AF90089568
:1041B000CFEFDFEFF1CFC9EFDFEFEECF6F927F925E
:1041C0008F929F92AF92BF92CF92DF92EF92FF9227
:1041D0000F931F93CF93DF9300D01F92CDB7DEB71D
:1041E000009709F47AC04115510509F476C0209171
:1041F0001E0507EF1FEF222309F44DC03A017B0192
:104200005C0164E070E0CE01019650DE8C01892BE8
:1042100009F041C009811A810115110509F45AC03C
:10422000480186E0880E911CB701680D791D8091C8
:104230002702909128020BDD6C01009709F450C011
:10424000A70170E060E00E94EE2A89819A81AB812B
:10425000BC81EC0CFD1CF70181939193A193B19368
:104260007F0181E090E085DDB801C7011FDE892B69
:1042700031F562E070E0C701800F911F17DE8C01FD
:10428000892BE9F490E080E074DDF501D182C082F1
:10429000F30191828082C8010F900F900F900F90D0
:1042A000DF91CF911F910F91FF90EF90DF90CF9012
:1042B000BF90AF909F908F907F906F90089590E007
:1042C00080E057DDF50111821082F3011182108226
:1042D000C60131DB09EF1FEFDECF0FEF1FEFDBCFA2
:1042E00006EF1FEFD8CF0097A1F04115510589F0D7
:1042F0002115310571F0F90136966E177F0748F0E8
:10430000DC012D933C93DA01ED93FC9390E080E087
:1043100008958FEF9FEF0895AF92BF92CF92DF92F3
:10432000EF92FF920F931F93CF93DF93009709F4BF
:104330005FC04115510509F45BC06530710508F493
:1043400057C020911E05C7EFDFEF222391F1DC015A
:10435000CD90DC9011971296ED91FC9196012A5F19
:104360003F4FC9EFDFEF2617370719F5C0911F053B
:10437000D0912005209749F521E030E030932005C9
:1043800020931F057A018C01F0932205E09321050B
:104390005601B4E0AB0EB11CB50176DE0A0D1B1D53
:1043A000F801208131818217930729F5D701CD9239
:1043B000DC92CE01DF91CF911F910F91FF90EF9092
:1043C000DF90CF90BF90AF9008952091210530915C
:1043D00022052F5F3F4FCCEFDFEFE217F30790F29C
:1043E000CBEFDFEF2E173F0768F2D0E0C0E0CACF77
:1043F000CFEFDFEFDECFC3EFDFEFDBCF84E090E086
:10440000089582E090E008958CEF9FEF089580E298
:1044100090E0089510922405109223051092220531
:10442000109221051092200510921F0590E080E067
:1044300008959093280280932702089580911E0585
:10444000882391F0C5DD009789F41092240510921D
:10445000230510922205109221051092200510923A
:104460001F0510921E05089590E080E008950097C2
:1044700049F06115710531F0FC0111821082FB01D8
:10448000118210820895F3CF26E030E040E855E233
:1044900060E070E090E080E000C08130910569F05C
:1044A0001CF4892B39F008958230910549F0039767
:1044B00051F0089582E395E078C58FEC95E0FCCF4C
:1044C0008CE696E0F9CF89E097E0F6CF1F920F9245
:1044D0000FB60F9211240BB60F922F933F934F9369
:1044E0005F936F937F938F939F93AF93BF93EF935C
:1044F000FF9386E997EE9093250180932401B9D02C
:10450000FF91EF91BF91AF919F918F917F916F91AB
:104510005F914F913F912F910F900BBE0F900FBE67
:104520000F901F90189586E997EE90932501809340
:104530002401A3E7B0E08C918E7F8C93E0E2F1E060
:1045400080818C7F8083E1E2F1E08081877E8083BF
:1045500080818460808380818C7F80838C91816066
:104560008C930895E3E7F0E0808190819E7F9083B3
:104570008170089581E0089510922505089568EEF0
:1045800073E080E090E0B8D290E080E0089526E00B
:1045900030E040E050E16EE070E090E080E07DDFF0
:1045A00082E395E038D4892B21F082E395E04DD465
:1045B000F7CF90E080E00895CF92DF92EF92FF92E4
:1045C0000F931F93CF93DF936B017A01E901198257
:1045D000188282E395E01FD4892B69F18601CC24EF
:1045E000C39482E0D82E80912505811110C082E30A
:1045F00095E02BD40297B9F7C0922505F801D19226
:104600008F0188819981019699838883ECCF888175
:1046100099818E159F0578F482E395E016D48F3F3B
:104620009807A9F3F80181938F01888199810196F8
:1046300099838883ECCF90E080E0DF91CF911F9148
:104640000F91FF90EF90DF90CF9008950F931F93FD
:10465000CF93DF93EA01890182E395E036D7F80131
:10466000D183C08390E080E0DF91CF911F910F91C3
:104670000895CF92DF92EF92FF928091260591E00C
:10468000980F90932605882369F021E030E030935D
:1046900028052093270580932605FF90EF90DF9053
:1046A000CF9008957894E0912A02F0912B02C28C69
:1046B000D38CE48CF58C0E947703B701A60190E0BF
:1046C00080E00E94EA02F894809126058150E3CFB1
:1046D0000F931F93CF93DF931092B0071092AF0701
:1046E00041D2D2DEC0912A02D0912B0219821882C7
:1046F0006FEF7FEFCB010E946C0370E060E090E011
:1047000080E00E94EF01009709F03AC00E94D603B2
:10471000F8947894BE016E5D7F4F8A819B810E94E0
:10472000F201892B59F46FEF7FEFCB010E948102D8
:104730000E946603882311F081E08EA3F894F3DED3
:104740000E946903882311F080E008C00E9466037C
:104750008111FACF81E09EA19111F6CF8093AF072E
:1047600078940E94630A8C0178948091AF0781113C
:104770000CC00E943C040E944C03F89490E080E03E
:10478000DF91CF911F910F9108950E944A030E94DB
:1047900069038823D9F081E08093B0079091B00736
:1047A00081E0911180E08093AF078091B007811183
:1047B000D9DE0130110529F40E94630A892B09F41E
:1047C000DBDE0E94630A8C01D5DECFCF0E94660338
:1047D0008111E1CF81E09EA19111DECF80E0DCCF9D
:1047E00040D008F481E00895E89409C097FB3EF4B6
:1047F00090958095709561957F4F8F4F9F4F99232E
:10480000A9F0F92F96E9BB279395F69587957795AB
:104810006795B795F111F8CFFAF4BB0F11F460FF6B
:104820001BC06F5F7F4F8F4F9F4F16C0882311F0C3
:1048300096E911C0772321F09EE8872F762F05C0D7
:10484000662371F096E8862F70E060E02AF09A9572
:10485000660F771F881FDAF7880F9695879597F967
:104860000895990F0008550FAA0BE0E8FEEF161601
:104870001706E807F907C0F012161306E407F50754
:1048800098F0621B730B840B950B39F40A2661F0C8
:10489000232B242B252B21F408950A2609F4A1406B
:1048A000A6958FEF811D811D0895DBDF08F48FEF42
:1048B00008950BD078C069D028F06ED018F09523F9
:1048C00009F05AC05FC01124A2C07ED0A0F3959F0A
:1048D000D1F3950F50E0551F629FF001729FBB27E7
:1048E000F00DB11D639FAA27F00DB11DAA1F649F93
:1048F0006627B00DA11D661F829F2227B00DA11D46
:10490000621F739FB00DA11D621F839FA00D611DCB
:10491000221F749F3327A00D611D231F849F600DEC
:10492000211D822F762F6A2F11249F5750408AF025
:10493000E1F088234AF0EE0FFF1FBB1F661F771FB1
:10494000881F91505040A9F79E3F510570F014C048
:104950005EC05F3FECF3983EDCF3869577956795F4
:10496000B795F795E7959F5FC1F7FE2B880F911DCF
:104970009695879597F9089597F99F6780E870E075
:1049800060E008959FEF80EC089500240A941616C5
:10499000170618060906089500240A94121613062D
:1049A000140605060895092E0394000C11F48823BB
:1049B00052F0BB0F40F4BF2B11F460FF04C06F5FD7
:1049C0007F4F8F4F9F4F089557FD9058440F551FAD
:1049D00059F05F3F71F04795880F97FB991F61F081
:1049E0009F3F79F087950895121613061406551FF8
:1049F000F2CF4695F1DF08C0161617061806991F64
:104A0000F1CF86957105610508940895E894BB2758
:104A100066277727CB0197F908951F920F920FB65B
:104A20000F9211242F933F938F939F93AF93BF9334
:104A300080912A0590912B05A0912C05B0912D0510
:104A40003091290523E0230F2D3758F50196A11D3C
:104A5000B11D2093290580932A0590932B05A093DF
:104A60002C05B0932D0580912E0590912F05A091D6
:104A70003005B09131050196A11DB11D80932E0521
:104A800090932F05A0933005B0933105BF91AF915E
:104A90009F918F913F912F910F900FBE0F901F907C
:104AA000189526E8230F0296A11DB11DD2CF3FB75E
:104AB000F89480912E0590912F05A0913005B0912A
:104AC000310526B5A89B05C02F3F19F00196A11D01
:104AD000B11D3FBFBA2FA92F982F8827BC01CD0148
:104AE000620F711D811D911D42E0660F771F881FA7
:104AF000991F4A95D1F708958F929F92AF92BF92D6
:104B0000CF92DF92EF92FF926B017C01D0DF4B01DD
:104B10005C01C114D104E104F104D9F003D5C7DF6D
:104B2000681979098A099B09683E734081059105D6
:104B300080F321E0C21AD108E108F10888EE880E5E
:104B400083E0981EA11CB11CC114D104E104F1043E
:104B500031F7FF90EF90DF90CF90BF90AF909F9094
:104B60008F900895789484B5826084BD84B5816007
:104B700084BD85B5826085BD85B5816085BDEEE665
:104B8000F0E0808181608083E1E8F0E01082808144
:104B900082608083808181608083E0E8F0E08081B2
:104BA00081608083E1EBF0E0808184608083E0EBD2
:104BB000F0E0808181608083E1E9F0E080818260C3
:104BC0008083808181608083E0E9F0E08081816082
:104BD0008083E1EAF0E0808182608083808181606F
:104BE0008083E0EAF0E0808181608083E1E2F1E0AF
:104BF000808182608083808181608083E0E2F1E057
:104C0000808181608083EAE7F0E080818460808336
:104C100080818260808380818160808380818068E0
:104C200080831092C10008958150823108F059C0EC
:104C3000E82FF0E08827E15EF94D8F4FA5C43F26AD
:104C40004326312637263B26712646264C265026FB
:104C500056265A265E266426682671266C267226FB
:104C60007626809180008F778093800008958091D0
:104C700080008F7DF9CF80918000877FF5CF84B54C
:104C80008F7784BD089584B58F7DFBCF8091B00070
:104C90008F778093B00008958091B0008F7DF9CF19
:104CA000809190008F77809390000895809190007C
:104CB0008F7DF9CF80919000877FF5CF8091A00004
:104CC0008F778093A00008958091A0008F7DF9CF09
:104CD0008091A000877FF5CF809120018F7780930E
:104CE00020010895809120018F7DF9CF80912001CE
:104CF000877FF5CFCF93DF9390E0FC01E65DFE4F19
:104D0000249180599E4FFC0184918823C9F090E042
:104D1000880F991FFC01E651FE4FA591B491FC014B
:104D2000E053FE4FC591D49161110DC09FB7F89427
:104D30008C91209582238C938881282328839FBF80
:104D4000DF91CF910895623051F49FB7F8943C9170
:104D5000822F809583238C93E8812E2BEFCF8FB702
:104D6000F894EC912E2B2C938FBFEACF1F93CF9307
:104D7000DF93282F30E0F901EC51FF4F8491F901C6
:104D8000E65DFE4FD491F901E059FE4FC491CC236A
:104D9000A1F0162F811148DFEC2FF0E0EE0FFF1F7E
:104DA000E053FE4FA591B4918FB7F894EC91111197
:104DB00008C0D095DE23DC938FBFDF91CF911F9188
:104DC0000895DE2BF8CF0F931F9390E0FC01E65D72
:104DD000FE4F7491FC01E059FE4FE4916111672F81
:104DE000F0E0EE0FFF1FEA54FE4F85919491890188
:104DF0009A013F70462F672F0E9438016115710597
:104E00008105910529F06F5F7F4F8F4F9F4F9F70F6
:104E10001F910F910895FC01918D228D892F90E0B3
:104E2000805C9F4F821B91098F7399270895FC0125
:104E3000918D828D981731F0828DE80FF11D858D4F
:104E400090E008958FEF9FEF0895FC01918D828D82
:104E5000981761F0A28DAE0FBF2FB11D5D968C919A
:104E6000928D9F5F9F73928F90E008958FEF9FEFD9
:104E70000895FC01538D448D252F30E0842F90E060
:104E8000821B930B541710F0CF9608950197089545
:104E9000FC01A48DA80FB92FB11DA35ABF4F2C91AF
:104EA000848D90E001968F739927848FA689B789A6
:104EB0002C93A089B1898C91837080648C93938D9D
:104EC000848D981306C00288F389E02D80818F7D40
:104ED00080830895CF93DF93EC01888D8823B1F010
:104EE000AA89BB89E889F9898C9185FD03C08081F5
:104EF00086FD0CC00FB607FCF7CF8C9185FFF2CF73
:104F0000808185FFEDCFCE01C3DFEACFDF91CF9166
:104F10000895EF92FF920F931F93CF93DF93EC01CD
:104F200081E0888F9B8D8C8D98131AC0E889F98950
:104F3000808185FF15C09FB7F894EE89FF89608353
:104F4000E889F98980818370806480839FBF81E0D4
:104F500090E0DF91CF911F910F91FF90EF90089516
:104F6000F62E0B8D10E00F5F1F4F0F731127E02EF1
:104F70008C8D8E110BC00FB607FCFACFE889F9892A
:104F8000808185FFF5CFCE0183DFF2CFEB8DEC0F73
:104F9000FD2FF11DE35AFF4FF0829FB7F8940B8F5E
:104FA000EA89FB8980818062D0CFCF92DF92EF9235
:104FB000FF921F93CF93DF93EC016A017B01122FC5
:104FC000E889F98982E08083C11481EED806E10482
:104FD000F10499F060E079E08DE390E0A70196019B
:104FE000B1D221503109410951095695479537955C
:104FF0002795211580E1380790F0E889F98910821A
:1050000060E874E88EE190E0A70196019BD2215000
:105010003109410951095695479537952795EC85F2
:10502000FD853083EE85FF852083188EEC89FD8910
:105030001083EA89FB89808180618083EA89FB890A
:10504000808188608083EA89FB8980818068808391
:10505000EA89FB8980818F7D8083DF91CF911F91C9
:10506000FF90EF90DF90CF9008951F920F920FB6B0
:105070000F9211240BB60F922F938F939F93EF9360
:10508000FF93E0914205F09143058081E09148054E
:10509000F091490582FD1DC0908180914B058F5F85
:1050A0008F7320914C05821741F0E0914B05F0E0A1
:1050B000EE5CFA4F958F80934B05FF91EF919F9196
:1050C0008F912F910F900BBE0F900FBE0F901F90DE
:1050D00018958081F2CF1F920F920FB60F92112474
:1050E0000BB60F922F933F934F935F936F937F93E2
:1050F0008F939F93AF93BF93EF93FF9382E395E0DA
:10510000C7DEFF91EF91BF91AF919F918F917F91FA
:105110006F915F914F913F912F910F900BBE0F9028
:105120000FBE0F901F901895E2E3F5E013821282F4
:1051300088EE93E0A0E0B0E084839583A683B783F4
:105140008EEA92E09183808385EC90E09587848756
:1051500084EC90E09787868780EC90E0918B808B41
:1051600081EC90E0938B828B82EC90E0958B848B2A
:1051700086EC90E0978B868B118E128E138E148E98
:1051800008951F920F920FB60F9211240BB60F9233
:105190002F938F939F93EF93FF93E091DF05F0910F
:1051A000E0058081E091E505F091E60582FD1DC0F6
:1051B00090818091E8058F5F8F732091E9058217B8
:1051C00041F0E091E805F0E0E153FA4F958F8093CC
:1051D000E805FF91EF919F918F912F910F900BBE5A
:1051E0000F900FBE0F901F9018958081F2CF1F92E5
:1051F0000F920FB60F9211240BB60F922F933F937D
:105200004F935F936F937F938F939F93AF93BF93CE
:10521000EF93FF938FEC95E03BDEFF91EF91BF9111
:10522000AF919F918F917F916F915F914F913F913E
:105230002F910F900BBE0F900FBE0F901F901895DF
:10524000EFECF5E01382128288EE93E0A0E0B0E08C
:1052500084839583A683B7838EEA92E091838083CB
:105260008DEC90E0958784878CEC90E0978786871B
:1052700088EC90E0918B808B89EC90E0938B828B13
:105280008AEC90E0958B848B8EEC90E0978B868BEC
:10529000118E128E138E148E08951F920F920FB6D8
:1052A0000F9211240BB60F922F938F939F93EF932E
:1052B000FF93E0917C06F0917D068081E09182066B
:1052C000F091830682FD1DC09081809185068F5FDD
:1052D0008F7320918606821741F0E0918506F0E0F9
:1052E000E459F94F958F80938506FF91EF919F9137
:1052F0008F912F910F900BBE0F900FBE0F901F90AC
:1053000018958081F2CF1F920F920FB60F92112441
:105310000BB60F922F933F934F935F936F937F93AF
:105320008F939F93AF93BF93EF93FF938CE696E099
:10533000AFDDFF91EF91BF91AF919F918F917F91E1
:105340006F915F914F913F912F910F900BBE0F90F6
:105350000FBE0F901F901895ECE6F6E013821282B4
:1053600088EE93E0A0E0B0E084839583A683B783C2
:105370008EEA92E09183808385ED90E09587848723
:1053800084ED90E09787868780ED90E0918B808B0D
:1053900081ED90E0938B828B82ED90E0958B848BF6
:1053A00086ED90E0978B868B118E128E138E148E65
:1053B00008951F920F920FB60F9211240BB60F9201
:1053C0002F938F939F93EF93FF93E0911907F091A1
:1053D0001A078081E0911F07F091200782FD1DC010
:1053E0009081809122078F5F8F732091230782170E
:1053F00041F0E0912207F0E0E75FF84F958F80934E
:105400002207FF91EF919F918F912F910F900BBEEB
:105410000F900FBE0F901F9018958081F2CF1F92B2
:105420000F920FB60F9211240BB60F922F933F934A
:105430004F935F936F937F938F939F93AF93BF939C
:10544000EF93FF9389E097E023DDFF91EF91BF9108
:10545000AF919F918F917F916F915F914F913F910C
:105460002F910F900BBE0F900FBE0F901F901895AD
:10547000E9E0F7E01382128288EE93E0A0E0B0E06A
:1054800084839583A683B7838EEA92E09183808399
:1054900085E391E09587848784E391E09787868709
:1054A00080E391E0918B808B81E391E0938B828B01
:1054B00082E391E0958B848B86E391E0978B868BDA
:1054C000118E128E138E148E0895AF92BF92CF92CA
:1054D000DF92EF92FF920F931F93CF93DF936C01B4
:1054E0007B018B01040F151FEB015E01AE18BF0895
:1054F000C017D10759F06991D601ED91FC91019047
:10550000F081E02DC6011995892B79F7C501DF914E
:10551000CF911F910F91FF90EF90DF90CF90BF90B0
:10552000AF9008950895DB018F939F9335D0BF917D
:10553000AF91A29F800D911DA39F900DB29F900DE2
:1055400011240895A1E21A2EAA1BBB1BFD010DC058
:10555000AA1FBB1FEE1FFF1FA217B307E407F50723
:1055600020F0A21BB30BE40BF50B661F771F881FFF
:10557000991F1A9469F760957095809590959B0195
:10558000AC01BD01CF010895EE0FFF1F881F8BBF37
:105590000790F691E02D199409D0A59F900DB49F26
:1055A000900DA49F800D911D11240895A29FB0011C
:1055B000B39FC001A39F700D811D1124911DB29F47
:1055C000700D811D1124911D0895FB01DC0102C0A5
:1055D00001900D9241505040D8F70895DC0101C070
:0E55E0006D9341505040E0F70895F894FFCFCE
:1055EE00FEFFFFFF01E8030000FFFF00000000FFC9
:1055FE00FFFFFFFFFFFFFFFFFF0100010001002083
:10560E000030000800FFFFFFFF01D002FF00B80CC2
:10561E00E40CFE009E0C1F0AFD00300C8A0CFC00F0
:10562E00760C1F0AF600670D1F0AF5003D0CA60D3D
:10563E00F400300DBD0DDE00EB118414DD005A13A5
:10564E001F0ADA00710F790FD9009F14890FE2003B
:10565E00590E1F0AE100940E1F0AE000090F1F0ADF
:10566E00D60074181F0AD50016111F0AD400A210F6
:10567E001F0AD30013101F0AC000980F1F0AF00054
:10568E00DD181F0AED009A181F0A00000000892776
:0C569E00652A39276A270B2725271727C4
:00000001FF
